:020000040800F2
:10000000188C00203502000895490008A14400081A
:100010009149000815080008295500080000000053
:10002000000000000000000000000000814A0008FD
:10003000E10B000800000000114A0008B54A000862
:100040004F0200084F0200084F0200084F0200084C
:100050004F0200084F0200084F0200084F0200083C
:100060004F0200084F0200084F0200084F0200082C
:10007000390800084F0200084F0200084F0200082C
:1000800049080008590800084F0200084F020008FC
:10009000190800084F0200084F0200084F0200082C
:1000A0004F020008C14B00084F0200084F02000831
:1000B0004F0200084F0200084F0200084F020008DC
:1000C0004F0200084F0200084F0200084F020008CC
:1000D0004F0200084F02000801550008155500089E
:1000E0004F0200084F0200084F0200084F020008AC
:1000F0004F0200084F0200084F0200084F0200089C
:100100004F0200084F0200084F0200084F0200088B
:100110004F0200084F0200084F0200084F0200087B
:100120004F0200084F02000869080008790800081B
:100130004F0200084F0200084F0200084F0200085B
:10014000290800084F0200084F0200084F0200086B
:100150004F0200084F0200084F0200084F0200083B
:100160004F0200084F0200084F0200084F0200082B
:100170004F0200084F0200084F0200080000000074
:100180004F0200084F02000800F002F800F042F8A9
:100190000AA090E8000C82448344AAF10107DA45E2
:1001A00001D100F037F8AFF2090EBAE80F0013F0F2
:1001B000010F18BFFB1A43F00103184724BC0000CD
:1001C00044BC0000103A24BF78C878C1FAD852075E
:1001D00024BF30C830C144BF04680C6070470000C1
:1001E0000023002400250026103A28BF78C1FBD840
:1001F000520728BF30C148BF0B6070471FB50AF0D7
:10020000C6FC9DE8030000F0F1F900F0C1F91FBD44
:1002100010B510BD00F082FA1146FFF7EFFF08F0AD
:10022000E9FF00F0A0FA03B4FFF7F2FF03BC00F00F
:1002300045FA00000948804709480047FEE7FEE705
:10024000FEE7FEE7FEE7FEE7FEE7FEE7FEE7FEE786
:1002500004480549054A064B70470000AD4B0008AD
:1002600089010008184C0020188C0020186C002010
:10027000186C002070B5064600F09CF9056806F180
:100280000B0020F00704B4429CBF002070BD2B4639
:100290006A68BAB11068A04210D304F1080188421C
:1002A0003CBF5068586007D351681019416011680D
:1002B000091B016058601460101D70BD1346526820
:1002C000002AE7D12146284600F07CF90028DED13B
:1002D00070BD53EA020C00F069802DE9F04B4FF03D
:1002E0000006002B1FBFB3FA83F503FA05F424FAC6
:1002F00005F65E4012BF1643B2FA82F502FA05F423
:10030000C5F120051EBF22FA05FC44EA0C04203585
:1003100056EA044C4FEA144418BF641C4FF000081E
:100320004FF00009904271EB030C39D3002919BF3B
:10033000B1FA81F701FA07F6B0FA80F700FA07F68A
:10034000C7F120071EBF20FA07FC46EA0C0620373B
:10035000B6FBF4FCA7EB0507103F07F01F0BCBF132
:1003600020062CFA06F60CFA0BFB44BFB346002617
:10037000202FA4BF5E464FF0000B5BEA060C08BFBF
:100380004FF0010B19EB0B0948EB0608ABFB027CA5
:1003900006FB02CC0BFB03CCC01B71EB0C01C1E7CD
:1003A0000B46024641464846BDE8F08B13B508436C
:1003B00018BF4FF0FF300146AFF30080BDE81C408E
:1003C000704740EA0103024630B59B0710D14FF059
:1003D000013400E008C208C91D1B9D4315EAC41F73
:1003E000F8D013F0FF0102F8011B0DD01B0AF8E74B
:1003F00011F8013B002B02F8013B05D011F8013B3D
:10040000002B02F8013BF3D130BD032A40F23080CB
:1004100010F0030C00F0158011F8013BBCF1020F45
:10042000624498BF11F801CB00F8013B38BF11F8C6
:10043000013BA2F1040298BF00F801CB38BF00F8DD
:10044000013B11F0030300F02580083AC0F008805A
:1004500051F8043B083A51F804CBA0E80810F5E73E
:10046000121D5CBF51F8043B40F8043BAFF3008021
:10047000D20724BF11F8013B11F801CB48BF11F896
:10048000012B24BF00F8013B00F801CB48BF00F866
:10049000012B704710B5203AC0F00B80B1E818501E
:1004A000A0E81850B1E81850A0E81850203ABFF45E
:1004B000F5AF5FEA027C24BFB1E81850A0E81850FD
:1004C00044BF18C918C0BDE810405FEA827C24BF51
:1004D00051F8043B40F8043B08BF7047D20728BFDF
:1004E00031F8023B48BF11F8012B28BF20F8023B2E
:1004F00048BF00F8012B70474FF000020429C0F0FC
:10050000128010F0030C00F01B80CCF1040CBCF145
:10051000020F18BF00F8012BA8BF20F8022BA1EB97
:100520000C0100F00DB85FEAC17C24BF00F8012B7C
:1005300000F8012B48BF00F8012B70474FF0000274
:1005400000B5134694469646203922BFA0E80C50C9
:10055000A0E80C50B1F12001BFF4F7AF090728BFA4
:10056000A0E80C5048BF0CC05DF804EB890028BF20
:1005700040F8042B08BF704748BF20F8022B11F049
:10058000804F18BF00F8012B7047704770477047C5
:1005900070B5064C7C44064D7D4404E0204601685D
:1005A00008448047241DAC42F8D170BD68B80000F3
:1005B00074B8000000487047200000207047704762
:1005C0007047704738B504460A4600206946AFF3C5
:1005D0000080002808BF38BD02460099204600F080
:1005E0007BF8012038BD012000F090B8F8B5AFF3DA
:1005F0000080054600200C46102000BF0646A819C2
:10060000A0420DD9324669460020AFF300800700B2
:1006100008BF00F07BF80098A04218BF0546C41937
:10062000FFF7C8FF05600746F01D20F007004619D8
:10063000284600F00AF8B44208BFF8BDA21B3146B4
:100640003868BDE8F84000F047B800210160C0E913
:10065000011070471020704770B50446051FFFF762
:10066000A9FF0068002C14BF446870BD002C18BF9F
:10067000AC423CBF20466468F8D301680A18AA421D
:1006800018BF456003D12A680546114401602868F7
:100690004119A1421CBF6C6070BD6168696021682E
:1006A0000844286070BD10B500F012F8006810BD55
:1006B00010B5044600F00CF8046010BD0149182084
:1006C000ABBEFEE72600020000487047180000207D
:1006D0000048704718000020034640688C460028F8
:1006E00018BF88423CBF03464068F8D318681844D6
:1006F000884207D00CF1030020F00700001D411ACA
:10070000521A0146081D0A60FFF7A6BF10B500F097
:1007100039F8BDE8104000F02FB870477546FFF774
:10072000D3FFAE4605006946534620F007008546D4
:1007300018B020B5FFF78CFDBDE820404FF0000653
:100740004FF000074FF000084FF0000BAC46ACE84C
:10075000C009ACE8C009ACE8C009ACE8C00921F0A8
:1007600007018D46704710B50446AFF30080204660
:10077000BDE81040FFF757BD002801D0FFF79EBF2E
:100780007047000010B5012805D0002103A000F03B
:1007900021F8012010BD09A1F8E700005349475294
:1007A000544D454D3A204F7574206F662068656141
:1007B00070206D656D6F7279000000003A20486509
:1007C0006170206D656D6F727920636F72727570E4
:1007D0007465640070B505460C460A2000E06D1C87
:1007E00000F011F835B128780028F8D102E0641C37
:1007F00000F009F814B120780028F8D1BDE8704065
:100800000A20AFF3008008B569468DF80000032088
:10081000ABBE08BDFFE7FEE780B540F6B800C2F208
:10082000000000F0EBFD80BD80B540F6E000C2F2B4
:10083000000000F0E3FD80BD80B540F68820C2F2E4
:10084000000001F017FB80BD80B540F6C810C2F271
:10085000000001F00FFB80BD80B540F62820C2F2F9
:10086000000001F007FB80BD80B540F60810C2F221
:10087000000001F0FFFA80BD80B540F66810C2F2BA
:10088000000001F0F7FA80BD82B001900198007875
:1008900010384AF6AB21CAF6AA21A0FB01100009C4
:1008A000009000994AF68C50C0F60000405C019917
:1008B000C8650098042807D3FFE701990868042257
:1008C00062F30900886506E00199086840F2FF328A
:1008D00090438865FFE70198806D02B07047000083
:1008E00086B0059000208DF813000598806A03906B
:1008F0000598806910BBFFE70398029003281BD876
:100900000299DFE801F0020D0218059890F82F0017
:10091000C00720B1FFE701208DF81300FFE70CE0CE
:100920000598C06AB0F1C07F04D1FFE701208DF8BF
:100930001300FFE701E000E0FFE745E0059880696C
:10094000B0F5005F25D1FFE70398019003281ED87A
:100950000199DFE801F00206021101208DF8130071
:1009600016E0059890F82F00C00720B1FFE701209E
:100970008DF81300FFE70BE00598C06AB0F1C07F67
:1009800004D1FFE701208DF81300FFE700E0FFE747
:1009900019E003980090032804D3FFE70098032888
:1009A00004D00EE001208DF813000BE0059890F8BC
:1009B0002F00C00720B1FFE701208DF81300FFE7EB
:1009C00000E0FFE7FFE7FFE79DF8130006B0704780
:1009D00081B041F20400CEF200000068009000985F
:1009E00040F25871C2F200010968884208D2FFE75C
:1009F00040F25C71C2F20001086801300860FFE754
:100A0000009840F25871C2F20001086001B07047CE
:100A100080B582B000F066F840F63000C2F2000007
:100A2000016883884FF47A7201FB023100EE101ADC
:100A3000B8EE400AC08801EE100AB8EEC11A9FED68
:100A4000062A21EE021A30EE010A8DED010A9DED13
:100A5000010A02B080BD00BF6F12833A81B00090DE
:100A60004EF6FC51CEF20001086840F0807008603C
:100A700041F20401CEF200010020086041F20002C0
:100A8000CEF20002116841F001011160009944F2B8
:100A90004022C0F20F024A4340F24071C2F200010C
:100AA0000A600A6844F6D353C1F26203A2FB033220
:100AB000920940F24473C2F200031A6009684DF6CD
:100AC0008362C4F21B32A1FB0221890C40F24872FE
:100AD000C2F20002116040F25C71C2F200010860D3
:100AE00001B07047B0B586B041F20400CEF200000C
:100AF00000680590FFF76CFF40F25C70C2F20000E6
:100B000001680598002302934FF0FF3C1A46E1FB71
:100B10000C0240F25071C2F2000100914A6008607C
:100B20000868496840F24074C2F200042268FFF786
:100B3000D0FB029B02468C46009940F60000C2F2B0
:100B40000000C0F804C00260D1F800C04968D0F8C5
:100B500000E042682468AEFB04E502FB0452BCEBF3
:100B60000E0C61EB020240F60801C2F20001039193
:100B7000C1F800C04A60006840F63002C2F20002CC
:100B8000049210600868496840F24472C2F20002A0
:100B900001921268FFF79DFBDDF804C0029B049AE6
:100BA000014603989180016840689288DCF800C093
:100BB00002FB0CF28A1A60F1000040F61001C2F24A
:100BC00000010A6048600868496840F24872C2F251
:100BD00000021268FFF77DFB0499C88006B0B0BD23
:100BE0007047000080B594B001210391129100205C
:100BF000109011910A900B900C900D9013900F9003
:100C00000E9040F6B800C2F2000000900AA90191CF
:100C100000F026FA009801F033F8009802210291C2
:100C200000F03CF90399009800F038F900984FF46F
:100C30000041049100F032F900984FF48071059161
:100C400000F02CF900984FF48061069100F026F92D
:100C500000984FF40071079100F020F900984FF4CC
:100C60000061089100F01AF901990E2013900F907D
:100C700040F6E000C2F20000099000F0F1F9099896
:100C800000F0FEFF0299099800F008F9039909980D
:100C900000F004F90499099800F000F90599099801
:100CA00000F0FCF80699099800F0F8F807990998FF
:100CB00000F0F4F80899099800F0F0F814B080BD3D
:100CC00084B08DF80E008DF80D1002920193002073
:100CD0008DF803009DF80E00012804D1FFE70220E3
:100CE0008DF80300FFE79DF80D00012806D1FFE70E
:100CF0009DF8030001308DF80300FFE79DF8031015
:100D000040F62800C2F20000405C142804D1FFE73E
:100D100000208DF80F0026E002989DF803C00CEB30
:100D20008C0140F2BC42C2F2000202EB411340F6D9
:100D30002801C2F2000111F80CC043F83C000198F0
:100D40009DF8033003EB830C02EB4C12CB5C02EBFF
:100D5000C30250609DF80320885C01308854012054
:100D60008DF80F00FFE79DF80F0004B070470000FA
:100D700080B540F61800C2F20000006806F0DAF90B
:100D800040F2A070C2F2000005F046F880BD0000FD
:100D900080B582B040F61800C2F2000001900268EF
:100DA000D2F8CC0202F5367102F53F72242304F02A
:100DB000B1FC01980268D2F8D40202F5487102F23F
:100DC0001F42FF2304F0A6FC02B080BD80B540F6B0
:100DD0001800C2F20000006806F074FD80BD00003B
:100DE00081B0EFF3108072B60090FFE7FEE70000DD
:100DF00084B002900191ADF80220029828B9FFE773
:100E00004FF6FF70ADF80E0021E0FFE70198411E9C
:100E10000191B8B1FFE70298411C029100788DF86A
:100E20000100BDF802109DF801004840C2B24BF627
:100E3000DE30C0F6000030F8120080EA1120ADF874
:100E40000200E3E7BDF80200ADF80E00FFE7BDF8D1
:100E50000E0004B07047000083B0029001918DF83D
:100E60000320FFE70198411E019198B1FFE79DF82B
:100E7000030002994A1C0292097848408DF802004A
:100E80009DF802104AF68C40C0F60000405C8DF8D8
:100E90000300E7E79DF8030003B0704784B00290B9
:100EA0000191029890F820008DF803009DF803004E
:100EB000012805D0FFE79DF8030002280AD1FFE7CB
:100EC000019A0298016848691043486100208DF832
:100ED0000F0008E00299486A40F48020486201202F
:100EE0008DF80F00FFE79DF80F0004B07047000079
:100EF00088B00690059104920393069890F820001C
:100F00008DF8070006980068806800900598806852
:100F100008B9FFE700E0FFE79DF80700012806D0C9
:100F2000FFE79DF80700022840F08D80FFE79DF85D
:100F30000300400700280CD4FFE79DF803000007DA
:100F4000002806D4FFE79DF80300C006002871D5ED
:100F5000FFE70098C0F3016002900298032809D3CC
:100F6000FFE70699486A40F40000486201208DF8C6
:100F70001F0071E0029901208840039908600598DC
:100F8000806868B9FFE705980168C06840EA415089
:100F900006990968029A01EB0211C1F880010EE07E
:100FA00005994A688868C96840EAC20008430699FA
:100FB0000968029A01EB0211C1F88001FFE7059868
:100FC000006906990968029A01EB0211C1F88401CF
:100FD0000598007D01280CD1FFE70698006802996A
:100FE00000EB0111D1F8840140F48070C1F8840154
:100FF000FFE70498406806990968029A01EB02111C
:10100000C1F88C010498006806990968029A01EBFE
:101010000211C1F8880106980068029900EB0111DD
:10102000D1F8800140F00100C1F8800100208DF866
:101030001F0011E00699486A40F400104862012040
:101040008DF81F0008E00699486A40F48020486245
:1010500001208DF81F00FFE79DF81F0008B07047C2
:1010600086B004900391049800680190049890F869
:1010700020008DF803009DF80300012806D0FFE74B
:101080009DF80300022840F0B080FFE746F20040E0
:10109000C4F2000001900199D1F8000240F0010073
:1010A000C1F800020199D1F8000220F47C50C1F887
:1010B00000020398426A0199D1F8000240EA022036
:1010C000C1F800020398406900F01F010120884028
:1010D0000290029A0199D1F81C029043C1F81C02B7
:1010E0000398C069F0B9FFE7029A0199D1F80C02A0
:1010F0009043C1F80C02039A9088D168526940EA83
:101100000140019901EBC201C1F84002039A108825
:101110009168526940EA0140019901EBC201C1F8AE
:101120004402FFE70398C06901281ED1FFE7029A35
:101130000199D1F80C021043C1F80C02039A90886F
:101140001168526940EA0140019901EBC201C1F8FE
:101150004002039A90899168526940EA01400199DE
:1011600001EBC201C1F84402FFE70398806940B96E
:10117000FFE7029A0199D1F804029043C1F80402F2
:1011800007E0029A0199D1F804021043C1F8040261
:10119000FFE70398006940B9FFE7029A0199D1F887
:1011A00014029043C1F8140207E0029A0199D1F8A1
:1011B00014021043C1F81402FFE70398006A0128E3
:1011C00008D1FFE7029A0199D1F81C021043C1F837
:1011D0001C02FFE70199D1F8000220F00100C1F8DC
:1011E000000200208DF8170008E00499486A40F4D6
:1011F0008020486201208DF81700FFE79DF8170056
:1012000006B0704781B0009001B0704786B004907E
:10121000039102920193049890F820008DF8030046
:101220009DF80300012806D0FFE79DF8030002287F
:1012300040F0D780FFE7039880B9FFE70498006883
:10124000C068800748B9FFE70499486A40F4001075
:10125000486201208DF81700CCE00FE00498006888
:101260000069800748B9FFE70499486A40F4001014
:10127000486201208DF81700BCE0FFE70498006881
:10128000039900EB0110D0F8B00100F004000299BE
:1012900088600298806858B9FFE70498006803994D
:1012A00000EB0110D0F8B001400D029908600AE08F
:1012B00004980068039900EB0110D0F8B001C00851
:1012C00002994860FFE704980068039900EB011059
:1012D000D0F8B00100F002000299C86004980068DC
:1012E000039900EB0110D0F8B40100F00F0002994F
:1012F000086104980068039900EB0110D0F8B4016C
:1013000080B2000A0299886104980068039900EB92
:101310000110D0F8B401000C0299486104980068EB
:10132000039900EB0110D0F8B801019908700498F6
:101330000068039900EB0110D0F8B801000A019988
:10134000487004980068039900EB0110D0F8B801C8
:10135000000C0199887004980068039900EB011053
:10136000D0F8B801000E0199C8700498006803997C
:1013700000EB0110D0F8BC010199087104980068D5
:10138000039900EB0110D0F8BC01000A01994871E3
:1013900004980068039900EB0110D0F8BC01000C20
:1013A0000199887104980068039900EB0110D0F846
:1013B000BC01000E0199C871039838B9FFE7049881
:1013C0000168C86840F02000C86006E00498016821
:1013D000086940F020000861FFE700208DF8170041
:1013E00008E00499486A40F48020486201208DF8A2
:1013F0001700FFE79DF8170006B0704780B58AB068
:1014000009900020089009980068406907900998A1
:1014100000684068069009980068806805900998FF
:101420000068C068049009980068006903900998F2
:101430000068806902909DF81C00C007002800F039
:101440009480FFE79DF81400C00758B3FFE70998A0
:101450000168012088609DF814008007002804D5E9
:10146000FFE7099800F056FC1BE09DF814004007C8
:10147000002805D5FFE7089840F4006008900FE0C9
:101480009DF814000007002805D5FFE7089840F4F0
:101490008050089003E0099800F038FCFFE7FFE770
:1014A000FFE7FFE79DF81500C00760B3FFE7099865
:1014B00001684FF4807088609DF81500800700284F
:1014C00004D5FFE7099800F02DFC1BE09DF81500FE
:1014D0004007002805D5FFE7089840F40050089021
:1014E0000FE09DF815000007002805D5FFE70898D4
:1014F00040F48040089003E0099800F00FFCFFE7FB
:10150000FFE7FFE7FFE79DF81600C00760B3FFE7BE
:10151000099801684FF4803088609DF816008007B4
:10152000002804D5FFE7099800F004FC1BE09DF8B3
:1015300016004007002805D5FFE7089840F4004052
:1015400008900FE09DF816000007002805D5FFE77A
:10155000089840F48030089003E0099800F0E6FB1A
:10156000FFE7FFE7FFE7FFE7FFE79DF81C00000745
:10157000002810D5FFE79DF81000C006002809D507
:10158000FFE7089840F4007008900998016810205F
:10159000C860FFE7FFE79DF81C00400700280FD553
:1015A000FFE79DF810000007002808D5FFE709981D
:1015B00001680820C860099800F0CCFAFFE7FFE74F
:1015C0009DF81C00800700280BD5FFE709980068EC
:1015D000C068800720B1FFE7099800F0BFFAFFE775
:1015E000FFE79DF81C004006002810D5FFE79DF896
:1015F0000C00C006002809D5FFE7089840F4806079
:1016000008900998016810200861FFE7FFE79DF83E
:101610001C00800600280FD5FFE79DF80C0000078E
:10162000002808D5FFE70998016808200861099893
:1016300000F01AFBFFE7FFE79DF81C00C00600283A
:101640000BD5FFE7099800680069800720B1FFE724
:10165000099800F00DFBFFE7FFE79DF81E008007EB
:1016600000280FD5FFE79DF81800C006002808D510
:10167000FFE70998016810204860099800F0FCFA1B
:10168000FFE7FFE79DF81E00C00778B1FFE79DF870
:1016900018000007002808D5FFE70998016808200E
:1016A0004860099800F04AFBFFE7FFE79DF81D003E
:1016B0000006002840F18D80FFE79DF818004007E4
:1016C000002840F18180FFE79DF81D00C00750B160
:1016D000FFE79DF80800C00728B1FFE7089840F031
:1016E00001000890FFE79DF81D00800700280BD53A
:1016F000FFE79DF808008007002805D5FFE7089858
:1017000040F002000890FFE79DF81D004007002808
:101710000BD5FFE79DF808004007002805D5FFE737
:10172000089840F004000890FFE79DF81D000007AE
:10173000002848D5FFE79DF8080010F0700F42D050
:10174000FFE7029800F0700001460191102814D0C4
:10175000FFE70198202815D0FFE70198302816D020
:10176000FFE70198402817D0FFE70198502818D0CC
:10177000FFE70198602819D01DE0089840F00800A4
:10178000089019E0089840F01000089014E00898BC
:1017900040F0200008900FE0089840F040000890CA
:1017A0000AE0089840F08000089005E0089840F4AE
:1017B0008070089000E0FFE709980168886920F0D0
:1017C00070008861FFE7FFE709980168042048601E
:1017D000FFE7089848B1FFE7089A0999486A10435B
:1017E00048620998FFF70EFDFFE70AB080BD0000D0
:1017F00080B584B00290029820B9FFE701208DF8EF
:101800000F00E0E0029890F8200020B9FFE702986E
:1018100000F0DEF8FFE702980168086840F0010078
:10182000086000F063FF0190FFE7029800684068DD
:10183000C007A8B9FFE700F059FF0199401A0B282B
:101840000DD3FFE70299486A40F4003048620299DC
:10185000052081F8200001208DF80F00B3E0E4E7B7
:1018600002980168086820F00200086000F03EFF5E
:101870000190FFE70298006840688007002815D5AE
:10188000FFE700F033FF0199401A0B280DD3FFE763
:101890000299486A40F4003048620299052081F8B4
:1018A000200001208DF80F008DE0E3E70298007E14
:1018B000012807D1FFE702980168086840F080001E
:1018C000086006E002980168086820F0800008605F
:1018D000FFE70298407E012807D1FFE702980168E0
:1018E000086840F04000086006E002980168086857
:1018F00020F040000860FFE70298807E012807D1B1
:10190000FFE702980168086840F02000086006E0E0
:1019100002980168086820F020000860FFE702983C
:10192000C07E012807D1FFE702980168086820F00F
:101930001000086006E002980168086840F0100096
:101940000860FFE70298007F012807D1FFE70298AF
:101950000168086840F00800086006E00298016825
:10196000086820F008000860FFE70298407F01281F
:1019700007D1FFE702980168086840F0040008609A
:1019800006E002980168086820F004000860FFE79C
:10199000029B19685A689868D3F80CC040EA0C009A
:1019A000D3F810C040EA0C005B691843013A1043B9
:1019B000C861029900204862029A012182F8201031
:1019C0008DF80F00FFE79DF80F0004B080BD000008
:1019D00080B590B00F9000200E900D900C900B9061
:1019E0000A900F98006846F20041C4F20001884254
:1019F00049D1FFE740F62000C2F200000168013142
:101A000001600068012812D1FFE7FFE7002009907C
:101A100043F64000C4F20200016841F00071016029
:101A2000006800F0007009900998FFE7FFE7FFE702
:101A30000020089043F63000C4F20200016841F033
:101A400008010160006800F0080008900898FFE7AE
:101A500003200A9002210B91002103910C910D901B
:101A600009200E9040F60040C4F202000AA900F0DE
:101A700049FC039A14200490052100F00BFF049800
:101A800000F0FEFE64E00F98006846F60001C4F224
:101A9000000188425BD1FFE7FFE70020079043F693
:101AA0004000C4F20200016841F0806101600068FA
:101AB00000F0806007900798FFE740F62000C2F230
:101AC00000000168013101600068012812D1FFE7C0
:101AD000FFE70020069043F64000C4F202000168D0
:101AE00041F000710160006800F0007006900698F7
:101AF000FFE7FFE7FFE70020059043F63000C4F260
:101B00000200016841F002010160006800F002007B
:101B100005900598FFE760200A9002200B900020B6
:101B200001900C9003200D9009200E9040F200408F
:101B3000C4F202000AA900F0E5FB019A40200290DD
:101B4000052100F0A7FE029800F09AFEFFE7FFE7EC
:101B500010B080BD81B0009001B0704780B58EB0EC
:101B60000D9000218DF80F1002910D9806AA04AB7C
:101B7000FFF74CFB002874D1FFE70D9840F6E00119
:101B8000C2F20001884204D1FFE702208DF80F0065
:101B9000FFE70898042808D1FFE7079802909DF80E
:101BA0000F0001308DF80F0002E006980290FFE769
:101BB00000200190FFE701989DF80F2040F62801D2
:101BC000C2F20001895C88424ADAFFE79DF80F0003
:101BD00000EB800140F2BC40C2F2000000EB41107B
:101BE000019950F8310090B9FFE79DF80F0000EB24
:101BF000800140F2BC40C2F2000000EB41100199AC
:101C000000EBC100426806A804A9904723E09DF8B4
:101C10000F0000EB800140F2BC40C2F2000000EB7C
:101C20004110019950F831000299884212D1FFE722
:101C30009DF80F0000EB800140F2BC40C2F20000B2
:101C400000EB4110019900EBC100426806A804A90D
:101C50009047FFE7FFE7FFE7019801300190AAE70F
:101C6000FFE70EB080BD000081B0009001B070476A
:101C700081B0009001B0704781B0009001B0704712
:101C800080B584B00290029890F8200001282FD1EE
:101C9000FFE70299022081F8200002980168086895
:101CA00020F00100086000F021FD0190FFE702989C
:101CB00000684068C007A8B1FFE700F017FD019970
:101CC000401A0B280DD3FFE70299486A40F4003010
:101CD00048620299052081F8200001208DF80F004C
:101CE0000FE0E4E70299002048628DF80F0008E059
:101CF0000299486A40F40020486201208DF80F00E4
:101D0000FFE79DF80F0004B080BD000081B0009097
:101D100001B0704781B0009001B0704781B0009071
:101D200001B0704781B0009001B0704781B0009061
:101D300001B0704781B0009001B0704781B0009051
:101D400001B0704780B584B002900298806D019018
:101D500000F0CCFC0090029890F8350002280DD0DD
:101D6000FFE7029980204865FFE70299002081F88B
:101D70003400FFE701208DF80F0055E0029801685C
:101D8000086820F01600086002980168486920F091
:101D9000800048610298006C20B9FFE70298806CCF
:101DA00038B1FFE702980168086820F00800086071
:101DB000FFE702980168086820F001000860FFE76B
:101DC000029800680068C007C8B1FFE700F08EFC09
:101DD0000099401A062811D3FFE702992020486590
:101DE0000299032081F83500FFE70299002081F86D
:101DF0003400FFE703208DF80F0015E0E0E70298BC
:101E0000C16D3F208840019988600299012081F8C6
:101E10003500FFE70299002081F83400FFE7FFE773
:101E200000208DF80F00FFE79DF80F0004B080BD83
:101E300082B00090009890F83500022807D0FFE7A4
:101E400000998020486501208DF807000EE0009978
:101E5000052081F8350000980168086820F001002D
:101E60000860FFE700208DF80700FFE79DF80700F6
:101E700002B0704780B586B005900020039040F214
:101E80000400C2F20000006848F2B511C1F64E31FC
:101E9000A0FB0110800A02900598806D01900198C6
:101EA0000068049004980599C96DC840000700288F
:101EB0001AD5FFE70598006800684007002812D58A
:101EC000FFE705980168086820F00400086005989D
:101ED000C16D08208840019988600599486D40F0DF
:101EE00001004865FFE7FFE704980599C96DC84000
:101EF000C007A0B1FFE70598006840690006002808
:101F00000CD5FFE70598C16D0120884001998860D4
:101F10000599486D40F002004865FFE7FFE7049827
:101F20000599C96DC8404007002814D5FFE70598FA
:101F300000680068800700280CD5FFE70598C16D90
:101F400004208840019988600599486D40F004009C
:101F50004865FFE7FFE704980599C96DC840C006CA
:101F6000002847D5FFE705980068006800070028AB
:101F70003FD5FFE70598C16D102088400199886022
:101F8000059800680068400300281AD5FFE7059807
:101F9000006800680003002809D4FFE70598006C7A
:101FA00020B1FFE70598016C8847FFE708E0059836
:101FB000806C20B1FFE70598816C8847FFE7FFE759
:101FC00016E0059800680068C005002807D4FFE700
:101FD00005980168086820F008000860FFE7059888
:101FE000006C20B1FFE70598016C8847FFE7FFE729
:101FF000FFE7FFE704980599C96DC84080060028EF
:1020000040F18D80FFE7059800680068C006002851
:1020100040F18480FFE70598C16D20208840019938
:102020008860059890F83500052834D1FFE70598B9
:102030000168086820F01600086005980168486982
:1020400020F0800048610598006C20B9FFE70598F2
:10205000806C38B1FFE705980168086820F0080037
:102060000860FFE70598C16D3F20884001998860AE
:102070000599012081F83500FFE70599002081F8D6
:102080003400FFE70598006D20B1FFE70598016D6A
:102090008847FFE77BE00598006800684003002858
:1020A0001AD5FFE70598006800680003002809D4E6
:1020B000FFE70598406C20B1FFE70598416C884721
:1020C000FFE708E00598C06B20B1FFE70598C16BFA
:1020D0008847FFE7FFE720E0059800680068C00533
:1020E000002811D4FFE705980168086820F0100067
:1020F00008600599012081F83500FFE70599002067
:1021000081F83400FFE7FFE70598C06B20B1FFE7D7
:102110000598C16B8847FFE7FFE7FFE7FFE70598F2
:10212000406DA0B3FFE70598406DC00730B3FFE7EF
:102130000599052081F8350005980168086820F0A8
:1021400001000860FFE7039801300390029988427C
:1021500001D9FFE707E0FFE7059800680068C007BE
:102160000028F0D1FFE70599012081F83500FFE74D
:102170000599002081F83400FFE7FFE70598C06C5F
:1021800020B1FFE70598C16C8847FFE7FFE706B07D
:1021900080BD000080B586B004900020039000F060
:1021A000A5FA0290049820B9FFE701208DF81700E6
:1021B000A3E00498406A08B1FFE7FFE70499022012
:1021C00081F83500FFE70499002081F83400FFE72B
:1021D00004980168086820F001000860FFE704988F
:1021E00000680068C00790B1FFE700F07FFA02992D
:1021F000401A06280AD3FFE704992020486504996D
:10220000032081F835008DF8170076E0E7E70498A1
:10221000006800680390039848F23F01CFF2100174
:1022200008400390049900914868D1F808C0CB6831
:102230000A6940EA0C00184310434A6910438A694E
:102240001043CA691043096A014303980843039085
:102250000498406A042808D1FFE70499C86A096B0A
:102260000143039808430390FFE703980499096822
:1022700008600498006840690390039820F0070004
:1022800003900498416A0398084303900498406AB5
:1022900004281AD1FFE70498816A03980843039041
:1022A0000498C06A80B1FFE70498FEF719FB50B1AB
:1022B000FFE70499402048650499012081F8350022
:1022C0008DF8170019E0FFE7FFE703980499096804
:1022D00048610498FEF7D8FA01900498C16D3F2038
:1022E000884001998860049900204865049A01217A
:1022F00082F835108DF81700FFE79DF8170006B03B
:1023000080BD00008EB00D900C9100200A900990C5
:1023100008900B90FFE70B980F2800F2CC81FFE7A5
:102320000B99012088400A900C9800680A9908408F
:10233000099009980A99884240F0B881FFE70C9803
:10234000406800F00300012807D0FFE70C984068C0
:1023500000F0030002282FD1FFE70D988068089055
:102360000B984100032000FA01F108988843089077
:102370000C98C0680B99490000FA01F108980843CD
:10238000089008980D9988600D98406808900B99FE
:10239000012000FA01F10898884308900C984068E1
:1023A000C0F300100B9900FA01F108980843089057
:1023B00008980D994860FFE70C98406800F003000A
:1023C000032818D0FFE70D98C06808900B984100CB
:1023D000032000FA01F10898884308900C9880685F
:1023E0000B99490000FA01F10898084308900898F1
:1023F0000D99C860FFE70C98406800F003000228C0
:1024000026D1FFE70D980B996FF0030202EA510104
:102410000844006A08900B9800F0070081000F2024
:1024200000FA01F10898884308900C9800690B990C
:1024300001F00701890000FA01F1089808430890AB
:1024400008980D990B9B02EA530211440862FFE7BA
:102450000D98006808900B984100032000FA01F1E4
:102460000898884308900C98406800F003000B9986
:10247000490000FA01F108980843089008980D995E
:1024800008600C9880798007002800F00E81FFE733
:10249000FFE70020079043F64400C4F20200016801
:1024A00041F480410160006800F480400790079883
:1024B000FFE70B9820F0030043F60801C4F2010186
:1024C000405808900B9800F0030081000F2000FA9C
:1024D00001F10898884308900D980021C4F2020188
:1024E000884203D1FFE7002006905EE00D9840F29D
:1024F0000041C4F20201884203D1FFE701200590A8
:1025000050E00D9840F60001C4F20201884203D168
:10251000FFE70220049042E00D9840F60041C4F22B
:102520000201884203D1FFE70320039034E00D98B5
:1025300041F20001C4F20201884203D1FFE7042006
:10254000029026E00D9841F20041C4F20201884257
:1025500003D1FFE70520019018E00D9841F6000136
:10256000C4F20201884203D1FFE7062000900AE08E
:102570000D9941F60042C4F202020820914208BFC0
:1025800007200090FFE700980190FFE70198029074
:10259000FFE702980390FFE703980490FFE7049891
:1025A0000590FFE705980690FFE70698C0B20B99E3
:1025B00001F00301890000FA01F10898084308902E
:1025C00008980B9921F0030143F60802C4F20102B6
:1025D000885043F60840C4F2010000680890099949
:1025E0000898884308900C988079C006002805D583
:1025F000FFE70999089808430890FFE7089843F611
:102600000841C4F20101086043F60C40C4F2010025
:102610000068089009990898884308900C98807978
:102620008006002805D5FFE7099908980843089017
:10263000FFE7089843F60C41C4F20101086043F635
:102640000440C4F201000068089009990898884382
:1026500008900C9880798007002805D5FFE7099934
:10266000089808430890FFE7089843F60441C4F22D
:102670000101086043F60040C4F2010000680890C0
:1026800009990898884308900C988079C00728B168
:10269000FFE70999089808430890FFE7089843F670
:1026A0000041C4F201010860FFE7FFE7FFE70B9874
:1026B00001300B902FE60EB07047000082B0019001
:1026C000ADF802108DF801209DF8010028B1FFE758
:1026D000BDF802000199886105E0BDF80200000420
:1026E00001998861FFE702B07047000044F6FC00E2
:1026F000C2F200000068704740F20A00C2F2000017
:10270000027844F6FC01C2F2000108681044086037
:102710007047000080B543F60041C4F2020108682A
:1027200040F400700860086840F480600860086841
:1027300040F480700860032000F0C6F80F2000F01D
:1027400005F800F071F8002080BD000080B58CB065
:102750000B90002005900490FFE70020019043F6C5
:102760004400C4F20200016841F001010160006808
:1027700000F0010001900198FFE706A803A900F00E
:10278000DDF900F01DFA4000059005984DF68361D3
:10279000C4F21B31A0FB01014FF0FF3000EB914070
:1027A000049040F64030C2F200000021C4F2010162
:1027B000016040F2E731C16004994160002101618C
:1027C0008160816100F034FF8DF80B009DF80B00F3
:1027D00028BBFFE740F64030C2F2000000F0A0FF47
:1027E0008DF80B009DF80B00C0B9FFE7192000F031
:1027F00047F80B980F280CD8FFE70B9919200022F7
:1028000000F048F80B9840F20C01C2F20001086099
:1028100003E001208DF80B00FFE7FFE7FFE79DF8DD
:102820000B000CB080BD000080B582B0FFE7002037
:10283000019043F64400C4F20200016841F4804173
:102840000160006800F4804001900198FFE7FFE715
:102850000020009043F64000C4F20200016841F0FD
:1028600080510160006800F0805000900098FFE700
:102870006FF001000F21002200F00CF802B080BDC3
:1028800080B582B08DF807009DF9070006F09CFA2C
:1028900002B080BD80B586B08DF817000491039218
:1028A0000020029006F0A8FA02909DF9170001900E
:1028B00002980499039A02F06FF80146019806F015
:1028C000A3FA06B080BD000080B582B001900198E7
:1028D00006F0BCFA02B080BD80B584B002900191D0
:1028E000029820B9FFE701208DF80F0021E101983F
:1028F00043F60041C4F20201096801F00701884271
:1029000012D9FFE7019943F60040C4F202000170BA
:10291000006800F007000199884204D0FFE7012019
:102920008DF80F0005E1FFE7029800788007002886
:102930002AD5FFE7029800784007002809D5FFE76D
:1029400043F60801C4F20201086840F4E050086050
:10295000FFE7029800780007002809D5FFE743F653
:102960000801C4F20201086840F460400860FFE713
:1029700043F60801C4F20201086820F0F000029A50
:10298000926810430860FFE702980078C0070028AB
:102990006ED0FFE702984068012811D1FFE743F6A7
:1029A0000000C4F20200006800F400310020B0EB27
:1029B000514F04D1FFE701208DF80F00B9E02CE062
:1029C00002984068022805D0FFE702984068032873
:1029D00011D1FFE743F60000C4F20200006800F0E6
:1029E00000710020B0EB516F04D1FFE701208DF89A
:1029F0000F009EE010E043F60000C4F20200006801
:102A000000F002010020B0EB510F04D1FFE70120DC
:102A10008DF80F008DE0FFE7FFE743F60801C4F2F1
:102A20000201086820F00300029A5268104308600F
:102A3000FFF75CFE0090FFE743F60800C4F20200D7
:102A4000006800F00C0002994968B0EB810F0ED0CD
:102A5000FFE7FFF74BFE0099401A41F289318842A7
:102A600004D3FFE703208DF80F0062E0E4E7FFE7FF
:102A7000019843F60041C4F20201096801F0070120
:102A8000884212D2FFE7019943F60040C4F20200E7
:102A90000170006800F007000199884204D0FFE748
:102AA00001208DF80F0044E0FFE70298007840070E
:102AB00000280CD5FFE743F60801C4F202010868BC
:102AC00020F4E050029AD26810430860FFE70298B1
:102AD0000078000700280DD5FFE743F60801C4F28F
:102AE0000201086820F46040029A126940EAC200BC
:102AF0000860FFE700F076F843F60801C4F202012F
:102B00000968C9B20A094AF67441C0F60001895C35
:102B1000C84040F20401C2F20001086040F20C001B
:102B2000C2F200000068FFF711FE00208DF80F00D0
:102B3000FFE79DF80F0004B080BD000082B0019057
:102B4000009101990F20086043F60800C4F20200CA
:102B5000016801F00301019A5160016801F0F00180
:102B6000019A9160016801F4E051019AD160006816
:102B700000F46040C0080199086143F60040C4F2C7
:102B80000200006800F007000099086002B070477A
:102B900040F20400C2F200000068704780B5FFF701
:102BA000F7FF43F60801C4F202010968C1F382226B
:102BB0004AF68441C0F60001895CC84080BD00002F
:102BC00080B5FFF7E5FF43F60801C4F2020109688A
:102BD00089B24A0B4AF68441C0F60001895CC840BC
:102BE00080BD000080B586B0002005900490039061
:102BF000029043F60800C4F20200006800F00C00E6
:102C00000146019140B1FFE7019804280AD0FFE78F
:102C1000019808280CD04FE042F20040C0F2F400C6
:102C200002904FE041F20020C0F27A00029049E0A9
:102C300043F60400C4F20200016801F03F0105916F
:102C400000684002002813D5FFE743F60400C4F2F1
:102C500002000068C0F3881041F20021C0F27A013E
:102C6000A0FB0101059A0023FDF733FB049012E05D
:102C700043F60400C4F202000068C0F3881042F278
:102C80000041C0F2F401A0FB0101059A0023FDF709
:102C900020FB0490FFE743F60400C4F20200006842
:102CA00000F44031022000EBD130039004980399E6
:102CB000B0FBF1F0029005E042F20040C0F2F400F7
:102CC0000290FFE7029806B080BD000080B586B094
:102CD0000490049820B9FFE701208DF8170050E315
:102CE00004980078C007002800F0A580FFE743F6AD
:102CF0000800C4F20200006800F00C00042813D0A1
:102D0000FFE743F60800C4F20200006800F00C0080
:102D100008281ED1FFE743F60400C4F20200006851
:102D20004002002815D5FFE743F60000C4F2020078
:102D3000006800F400310020B0EB514F08D0FFE7ED
:102D40000498406820B9FFE701208DF8170018E3C8
:102D500070E0FFE704984068B0F5803F09D1FFE7D5
:102D600043F60001C4F20201086840F480300860B4
:102D700020E004984068B0F5A02F0DD1FFE743F69E
:102D80000001C4F20201086840F48020086008686D
:102D900040F4803008600CE043F60001C4F2020108
:102DA000086820F480300860086820F480200860FB
:102DB000FFE7FFE7FFE704984068E8B1FFE7FFF7A8
:102DC00095FC0390FFE743F60000C4F202000068A0
:102DD00000F400310020B0EB514F0CD1FFE7FFF7BA
:102DE00085FC0399401A652804D3FFE703208DF87A
:102DF0001700C6E2E7E71CE0FFF778FC0390FFE767
:102E000043F60000C4F20200006800F40031002024
:102E1000B0EB514F0CD0FFE7FFF768FC0399401A65
:102E2000652804D3FFE703208DF81700A9E2E7E740
:102E3000FFE7FFE7FFE7049800788007002840F1EC
:102E40009680FFE743F60800C4F20200006810F025
:102E50000C0F13D0FFE743F60800C4F2020000682D
:102E600000F00C0008282CD1FFE743F60400C4F260
:102E7000020000684002002823D4FFE743F6000068
:102E8000C4F20200006800F002010020B0EB510F14
:102E900009D0FFE70498C068012804D0FFE70120AB
:102EA0008DF817006DE243F60001C4F202010868D4
:102EB00020F0F800049A126940EAC2000860FFE7B7
:102EC00054E00498C06870B3FFE70021C4F24721C2
:102ED00001200860FFF70AFC0390FFE743F60000BB
:102EE000C4F20200006800F002010020B0EB510FB4
:102EF0000CD1FFE7FFF7FAFB0399401A032804D32C
:102F0000FFE703208DF817003BE2E7E743F60001F7
:102F1000C4F20201086820F0F800049A126940EA3D
:102F2000C200086021E00021C4F2472100200860AF
:102F3000FFF7DCFB0390FFE743F60000C4F202005A
:102F4000006800F002010020B0EB510F0CD0FFE749
:102F5000FFF7CCFB0399401A032804D3FFE70320B3
:102F60008DF817000DE2E7E7FFE7FFE7FFE70498BA
:102F70000078000700284BD5FFE70498406918B394
:102F8000FFE740F68061C4F2472101200860FFF7A7
:102F9000ADFB0390FFE743F67400C4F20200006843
:102FA00000F002010020B0EB510F0CD1FFE7FFF75A
:102FB0009DFB0399401A032804D3FFE703208DF8F3
:102FC0001700DEE1E7E722E040F68061C4F2472126
:102FD00000200860FFF78AFB0390FFE743F67400C8
:102FE000C4F20200006800F002010020B0EB510FB3
:102FF0000CD0FFE7FFF77AFB0399401A032804D3AC
:10300000FFE703208DF81700BBE1E7E7FFE7FFE7E5
:10301000049800784007002840F1CE80FFE70020A8
:103020008DF8070043F64000C4F202000068C000BB
:10303000002815D4FFE7FFE70020009043F640008A
:10304000C4F20200016841F080510160006800F0A4
:10305000805000900098FFE701208DF80700FFE7FF
:1030600047F20000C4F200000068C005002822D426
:10307000FFE747F20001C4F20001086840F48070E5
:103080000860FFF733FB0390FFE747F20000C4F24C
:1030900000000068C00500280CD4FFE7FFF726FBFE
:1030A0000399401A032804D3FFE703208DF8170083
:1030B00067E1EAE7FFE7FFE704988068012809D1A4
:1030C000FFE743F67001C4F20201086840F0010016
:1030D00008601FE00498806805280DD1FFE743F6DB
:1030E0007001C4F20201086840F00400086008683A
:1030F00040F0010008600CE043F67001C4F20201E8
:10310000086820F001000860086820F004000860EA
:10311000FFE7FFE7FFE704988068F8B1FFE7FFF7F4
:10312000E5FA0390FFE743F67000C4F2020000687E
:1031300000F002010020B0EB510F0ED1FFE7FFF7C6
:10314000D5FA0399401A41F28931884204D3FFE746
:1031500003208DF8170014E1E5E71EE0FFF7C6FA3B
:103160000390FFE743F67000C4F20200006800F02D
:1031700002010020B0EB510F0ED0FFE7FFF7B6FAC7
:103180000399401A41F28931884204D3FFE70320B2
:103190008DF81700F5E0E5E7FFE79DF80700012847
:1031A00009D1FFE743F64001C4F20201086820F0AC
:1031B00080500860FFE7FFE704988069002800F06E
:1031C000DC80FFE743F60800C4F20200006800F06C
:1031D0000C00082800F08580FFE704988069022829
:1031E0005CD1FFE76021C4F2472100200860FFF7AF
:1031F0007DFA0390FFE743F60000C4F20200006886
:1032000000F000710020B0EB516F0CD0FFE7FFF72A
:103210006DFA0399401A032804D3FFE703208DF8C1
:103220001700AEE0E7E70499C869D1F820C04B6AFF
:103230008A6A40EA0C0040EA8310D2034FF6FF731B
:103240009A43A2F580321043C96A40EA016043F60E
:103250000401C4F2020108606021C4F24721012088
:103260000860FFF743FA0390FFE743F60000C4F25B
:103270000200006800F000710020B0EB516F0CD12B
:10328000FFE7FFF733FA0399401A032804D3FFE757
:1032900003208DF8170074E0E7E721E06021C4F215
:1032A000472100200860FFF721FA0390FFE743F66B
:1032B0000000C4F20200006800F000710020B0EBD2
:1032C000516F0CD0FFE7FFF711FA0399401A03285A
:1032D00004D3FFE703208DF8170052E0E7E7FFE78C
:1032E0004AE004988069012804D1FFE701208DF8A5
:1032F000170046E043F60400C4F2020000680290A2
:1033000004988069012831D0FFE7029800F480001A
:103310000499C969884229D1FFE7029800F03F006B
:103320000499096A884221D1FFE7029847F6C071E3
:1033300008400499496AB0EB811F17D1FFE7029852
:1033400000F440300499896AC9034FF6FF72914333
:10335000A1F58031884209D1FFE7029800F0706042
:103360000499C96AB0EB016F04D0FFE701208DF822
:10337000170006E0FFE7FFE7FFE700208DF81700E2
:10338000FFE79DF8170006B080BD000080B584B04F
:103390000290029820B9FFE701208DF80F0071E03C
:1033A0000298406A60B9FFE702984068B0F5827FF2
:1033B00001D1FFE703E002990020C861FFE705E0C3
:1033C00002990020086102994861FFE702990020F4
:1033D0008862029890F8510040B9FFE702990020F6
:1033E00081F85000029800F051F8FFE7029902209E
:1033F00081F8510002980168086820F040000860D8
:10340000029A019211685068D2F808C0D36800F49B
:1034100082700CF4044C604403F400631844136994
:1034200003F002031844536903F00103184493693D
:1034300003F400731844D36903F038031844136A83
:1034400003F080031843926A02F4005210430860AC
:10345000029A508B00F004001168526A02F01002C8
:103460001044486002980168C86920F40060C8618F
:10347000029900204865029A012182F851108DF8C6
:103480000F00FFE79DF80F0004B080BD80B590B03D
:103490000F9000200E900D900C900B900A900F98BA
:1034A000006843F20001C4F20101884240F0B68096
:1034B000FFE7FFE70020099043F64400C4F2020052
:1034C000016841F480510160006800F48050099067
:1034D0000998FFE7FFE70020089043F63000C4F2A8
:1034E0000200016841F001010160006800F0010084
:1034F00008900898FFE7FFE70020079043F63000A8
:10350000C4F20200016841F002010160006800F0AD
:10351000020007900798FFE780200A9002200190A0
:103520000B90012002900C90032003900D90052039
:1035300004900E900020C4F202000AA90591FEF743
:10354000E1FEDDF804C0029B039A049805994FF050
:10355000180ECDF828E0CDF82CC00C930D920E90EB
:1035600040F20040C4F20200FEF7CCFE40F6081024
:10357000C2F20000069046F24041C4F2020101602E
:103580004FF0C061416000218160C1604FF48062F2
:10359000026141618161C1614FF440320262416266
:1035A000FEF7F8FD18B1FFE7FDF71AFCFFE7FFE7AC
:1035B0000F9840F60811C2F20001C1640F988863A9
:1035C000FFE740F66810C2F20000009046F2584152
:1035D000C4F2020101604FF0C0614160402181608E
:1035E0000021C1604FF48062026141618161C1616B
:1035F0004FF4403202624162FEF7CCFD18B1FFE7A2
:10360000FDF7EEFBFFE7FFE70F9840F66811C2F207
:10361000000181640F988863FFE7FFE710B080BD69
:1036200081B0009001B0704781B0009001B0704748
:1036300080B582B00090009820B9FFE701208DF896
:1036400007003FE0009890F83D0040B9FFE700997F
:10365000002081F83C00009800F038F8FFE700995E
:10366000022081F83D00009951F8040B01F0B6FAF0
:103670000099012081F84600FFE70099012081F8B8
:103680003E00009981F83F00009981F840000099C0
:1036900081F84100FFE7FFE70099012081F842002F
:1036A000009981F84300009981F84400009981F85D
:1036B0004500FFE70099012081F83D0000208DF8CA
:1036C0000700FFE79DF8070002B080BD80B584B019
:1036D00003900398006844F20041C4F2010188425B
:1036E0001BD1FFE7FFE70020029043F64400C4F23D
:1036F0000200016841F400310160006800F400300C
:1037000002900298FFE7192001900F210022FFF795
:10371000C1F80198FFF7B4F8FFE704B080BD0000DE
:1037200083B00190019890F83D00012804D0FFE794
:1037300001208DF80B006AE00199022081F83D001C
:1037400001980168C86840F00100C86001980068ED
:103750000021C4F2010188423CD0FFE701980068D3
:10376000B0F1804F36D0FFE70198006840F2004189
:10377000C4F2000188422DD0FFE70198006840F6AE
:103780000001C4F20001884224D0FFE701980068DC
:1037900040F60041C4F2000188421BD0FFE70198C7
:1037A000006840F20041C4F20101884212D0FFE7F4
:1037B0000198006844F20001C4F20101884209D076
:1037C000FFE70198006841F60001C4F20001884259
:1037D00012D1FFE701980068806800F007000090B0
:1037E0000098062807D0FFE701980168086840F0B4
:1037F00001000860FFE706E001980168086840F0F2
:1038000001000860FFE700208DF80B00FFE79DF83E
:103810000B0003B07047000081B0009001B070470A
:1038200080B582B0019001980068006900F0020143
:103830000020B0EB510F28D0FFE701980068C06866
:1038400000F002010020B0EB510F1DD0FFE70198FE
:1038500001686FF002000861019901200877019862
:1038600000688069800720B1FFE70198FFF7D4FF67
:1038700006E0019800F04AF9019800F03FFAFFE7EE
:10388000019900200877FFE7FFE7019800680069C9
:1038900000F004010020B0EB910F29D0FFE7019860
:1038A0000068C06800F004010020B0EB910F1ED04A
:1038B000FFE7019801686FF0040008610199022098
:1038C000087701980068806910F4407F04D0FFE712
:1038D0000198FFF7A1FF06E0019800F017F90198A1
:1038E00000F00CFAFFE7019900200877FFE7FFE7F7
:1038F00001980068006900F008010020B0EBD10FCA
:1039000028D0FFE701980068C06800F00801002097
:10391000B0EBD10F1DD0FFE7019801686FF00800F0
:10392000086101990420087701980068C069800740
:1039300020B1FFE70198FFF76FFF06E0019800F064
:10394000E5F8019800F0DAF9FFE70199002008771F
:10395000FFE7FFE701980068006900F01001002010
:10396000B0EB111F29D0FFE701980068C06800F094
:1039700010010020B0EB111F1ED0FFE70198016875
:103980006FF010000861019908200877019800681D
:10399000C06910F4407F04D0FFE70198FFF73CFFB7
:1039A00006E0019800F0B2F8019800F0A7F9FFE7EF
:1039B000019900200877FFE7FFE701980068006998
:1039C000C00780B1FFE701980068C068C00748B130
:1039D000FFE7019801686FF001000861019800F0AD
:1039E00091F9FFE7FFE7019800680069C1B2002084
:1039F000B0EBD11F13D0FFE701980068C068C1B2D7
:103A00000020B0EBD11F09D0FFE7019801686FF0EB
:103A1000800008610198FFF703FEFFE7FFE70198C8
:103A20000068006900F040010020B0EB911F14D045
:103A3000FFE701980068C06800F040010020B0EB8B
:103A4000911F09D0FFE7019801686FF040000861FD
:103A5000019800F067F9FFE7FFE701980068006947
:103A600000F020010020B0EB511F14D0FFE70198B7
:103A70000068C06800F020010020B0EB511F09D0A1
:103A8000FFE7019801686FF0200008610198FFF7D7
:103A9000CBFDFFE7FFE702B080BD000080B588B036
:103AA00007900020069005900490039002900798DC
:103AB000006844F20041C4F20101884223D1FFE7CB
:103AC000FFE70020019043F63000C4F202000168D5
:103AD00041F002010160006800F0020001900198CD
:103AE000FFE74FF4807002900220039001210491BF
:103AF00005900320069040F20040C4F2020002A9A3
:103B0000FEF700FCFFE708B080BD000081B0009028
:103B100001B0704780B586B00490039102920020F6
:103B20008DF80700FFE7049890F83C00012804D1C5
:103B3000FFE702208DF8170089E00499012081F841
:103B40003C00FFE7FFE7029800900C2800F270802D
:103B50000099DFE801F0076D6D6D206D6D6D3A6DB8
:103B60006D6D530004980068039901F005F90498FD
:103B70000168886940F008008861049801688869D4
:103B800020F004008861039802690498016888693C
:103B90001043886150E004980068039901F062F9CD
:103BA00004980168886940F400608861049801689D
:103BB000886920F48060886103980269049801682C
:103BC000886940EA0220886136E004980068039919
:103BD00001F0C2F904980168C86940F00800C861A2
:103BE00004980168C86920F00400C861039802695C
:103BF00004980168C8691043C8611DE00498006812
:103C0000039901F023FA04980168C86940F4006040
:103C1000C86104980168C86920F48060C86103988D
:103C2000026904980168C86940EA0220C86103E09B
:103C300001208DF80700FFE7FFE70499002081F8D5
:103C40003C00FFE79DF807008DF81700FFE79DF89F
:103C5000170006B080BD000080B582B000900098CB
:103C600020B9FFE701208DF807003FE0009890F8A9
:103C70003D0040B9FFE70099002081F83C00009822
:103C800000F038F8FFE70099022081F83D00009924
:103C900051F8040B00F0A2FF0099012081F84600C2
:103CA000FFE70099012081F83E00009981F83F006C
:103CB000009981F84000009981F84100FFE7FFE793
:103CC0000099012081F84200009981F84300009991
:103CD00081F84400009981F84500FFE70099012030
:103CE00081F83D0000208DF80700FFE79DF80700F0
:103CF00002B080BD81B0009001B0704781B00090EB
:103D000001B0704780B582B0019001980068002131
:103D1000C4F20101884203D1FFE7FEF7EDFCFFE7A3
:103D200002B080BD81B0009001B0704782B00190B8
:103D3000ADF8021002B0704781B0009001B070473A
:103D400080B592B011901198006800681090119899
:103D50000068C0680F901198006840690E900020BC
:103D60000D900C90109800F00F000D900D9888B9F0
:103D7000FFE79DF84000800600280AD5FFE79DF880
:103D80003C008006002804D5FFE7119801F01EFAD8
:103D9000E3E1FFE70D98002800F0C280FFE79DF8FF
:103DA0003800C00738B9FFE7BDF83C0010F4907F39
:103DB00000F0B680FFE79DF84000C00758B1FFE76C
:103DC0009DF83D00C00730B1FFE71199086C40F045
:103DD00001000864FFE79DF84000400700280BD56C
:103DE000FFE79DF83800C00730B1FFE71199086C74
:103DF00040F002000864FFE79DF8400080070028BB
:103E00000BD5FFE79DF83800C00730B1FFE71199E7
:103E1000086C40F004000864FFE79DF840000007CC
:103E2000002811D5FFE79DF83C008006002805D446
:103E3000FFE79DF83800C00730B1FFE71199086C23
:103E400040F008000864FFE71198006C002866D075
:103E5000FFE79DF84000800600280AD5FFE79DF89F
:103E60003C008006002804D5FFE7119801F0AEF968
:103E7000FFE7119800684069C0F380100C9011981A
:103E8000006C0007002804D4FFE70C9800283ED0FF
:103E9000FFE7119801F03CF911980068406940066D
:103EA00000282FD5FFE7FFE7FFE71198006850E8EB
:103EB000050F20F040000B90FFE70B991198026866
:103EC00042E805100028F0D1FFE7FFE71198806B6A
:103ED00098B1FFE71198816B45F2F100C0F6000040
:103EE00008651198806BFDF7A3FF28B1FFE71198D3
:103EF000806B016D8847FFE703E01198FFF71CFF17
:103F0000FFE703E01198FFF717FFFFE706E01198BE
:103F1000FFF712FF119900200864FFE7FFE71CE19B
:103F20001198006B012840F0F880FFE79DF84000F1
:103F3000C006002840F1F180FFE79DF83C00C00674
:103F4000002840F1EA80FFE7FFE700200A9011987F
:103F5000006800680A901198006840680A900A9802
:103F6000FFE7119800684069400600287ED5FFE70A
:103F70001198806B00684068ADF82600BDF82600F7
:103F8000002872D0FFE7BDF826001199898D88427C
:103F90006BDAFFE7BDF826001199C8851198806B90
:103FA000C069B0F5807F58D0FFE7FFE7FFE71198C1
:103FB000006850E8030F20F480700890FFE708992C
:103FC0001198026842E803100028F0D1FFE7FFE7EC
:103FD000FFE7FFE71198006850E8050F20F00100A7
:103FE0000790FFE707991198026842E8051000283A
:103FF000F0D1FFE7FFE7FFE7FFE71198006850E81F
:10400000050F20F040000690FFE70699119802681E
:1040100042E805100028F0D1FFE7FFE711992020C2
:1040200081F83E00119900200863FFE7FFE711982F
:10403000006850E8030F20F010000590FFE7059995
:104040001198026842E803100028F0D1FFE7FFE76B
:104050001198806BFDF776FEFFE71198818DC28D78
:10406000891A89B2FFF762FEFFE776E01199888D21
:10407000C98D401AADF812001198C08D00284BD0A0
:10408000FFE7BDF81200002846D0FFE7FFE7FFE793
:104090001198006850E8030F20F490700390FFE738
:1040A00003991198026842E803100028F0D1FFE755
:1040B000FFE7FFE7FFE71198006850E8050F20F0E1
:1040C00001000290FFE702991198026842E805108A
:1040D0000028F0D1FFE7FFE71199202081F83E008A
:1040E000119900200863FFE7FFE71198006850E886
:1040F000030F20F010000190FFE70199119802686A
:1041000042E803100028F0D1FFE7FFE71198BDF85F
:104110001210FFF70BFEFFE71FE09DF840000006BE
:1041200000280AD5FFE79DF83C000006002804D5CA
:10413000FFE7119801F09AF90FE09DF84000400662
:1041400000280AD5FFE79DF83C004006002804D56A
:10415000FFE7119801F026F8FFE712B080BD0000DC
:1041600080B582B00090009820B9FFE701208DF85B
:1041700007003EE00098806908B1FFE700E0FFE734
:10418000009890F83D0040B9FFE70099002081F8C1
:104190003C00009800F032F8FFE70099242081F8F5
:1041A0003D0000980168C86820F40050C86000987D
:1041B00001F0BEF800980168086920F49040086199
:1041C00000980168486920F02A0048610098016859
:1041D000C86840F40050C860009900200864009A44
:1041E000202182F83D10009A82F83E108DF80700D9
:1041F000FFE79DF8070002B080BD000080B598B0D1
:104200001790002016901590149013901290179804
:10421000006844F20041C4F20001884240F09580F9
:10422000FFE7FFE70020119043F64000C4F20200D0
:10423000016841F400310160006800F40030119021
:104240001198FFE7FFE70020109043F63000C4F21A
:104250000200016841F001010160006800F0010006
:1042600010901098FFE70C2012900220139000206D
:104270000B90149003201590072016900020C4F294
:10428000020012A9FEF73EF80B9940F6C810C2F2E0
:1042900000000C9046F28802C4F2020202604FF065
:1042A000006242608160C1604FF4806202614161DE
:1042B0008161C1614FF4003202624162FDF76AFF21
:1042C00018B1FFE7FCF78CFDFFE7FFE7179840F612
:1042D000C811C2F20001816317988863FFE740F6B6
:1042E0002820C2F200000A9046F2A001C4F20201A6
:1042F00001604FF000614160402181600021C16098
:104300004FF48062026141618161C1614FF400320A
:1043100002624162FDF73EFF18B1FFE7FCF760FD66
:10432000FFE7FFE7179840F62821C2F2000141633A
:1043300017988863FFE72620099005210022FEF7E1
:10434000A9FA0998FEF79CFAA0E01798006844F6CD
:104350000001C4F20001884240F09780FFE7FFE7C8
:1043600000200F9043F64000C4F20200016841F4BF
:1043700080210160006800F480200F900F98FFE713
:10438000FFE700200E9043F63000C4F202000168FF
:1043900041F002010160006800F002000E900E98EA
:1043A000FFE7FFE700200D9043F63000C4F2020063
:1043B000016841F004010160006800F004000D9004
:1043C0000D98FFE74FF48060069012900220029053
:1043D000139000200790149003200390159007205D
:1043E0000490169040F20040C4F2020012A9059118
:1043F000FDF788FFDDF808C0039A04980599079B2C
:104400004FF4006ECDF848E0CDF84CC014931592EF
:10441000169040F60000C4F20200FDF773FF069A02
:10442000079940F68820C2F20000089046F228035F
:10443000C4F2020303604FF0006343608160C16017
:104440000261416181614FF48072C2614FF4403278
:1044500002624162FDF79EFE18B1FFE7FCF7C0FC67
:10446000FFE7FFE7179840F68821C2F20001816359
:1044700017988863FFE72720019005210022FEF7A7
:1044800009FA0198FEF7FCF9FFE7FFE718B080BDD5
:1044900081B0009001B0704781B0009001B07047CA
:1044A000FFE7FEE780B582B040F6B800C2F2000038
:1044B000019046F20041C4F2000101600321416015
:1044C00000218160C1604FF4102202614FF400129C
:1044D00042610176012242768276C1760177417788
:1044E000FDF786F918B1FFE7FCF77AFCFFE702B0A9
:1044F00080BD000080B582B040F6E000C2F200004E
:10450000019046F60001C4F2000101600321416000
:1045100000218160C1604FF4102202614FF400124B
:1045200042610176012242768276C1760177417737
:10453000FDF75EF918B1FFE7FCF752FCFFE702B0A8
:1045400080BD000080B58AB0FFE70020099043F6E7
:104550003000C4F20200016841F4001101600068FB
:1045600000F4001009900998FFE7FFE70020089089
:1045700043F63000C4F20200016841F4800101609A
:10458000006800F4800008900898FFE70C20019074
:104590000521059100220692FEF77CF90198FEF7AD
:1045A0006FF90599069A10200290FEF773F90298A8
:1045B000FEF766F90599069A11200390FEF76AF94D
:1045C0000398FEF75DF90599069A3A200490FEF7E4
:1045D00061F90498FEF754F90599069A3B20079073
:1045E000FEF758F90798FEF74BF90AB080BD0000B6
:1045F000B0B59EB04AF65840C0F600000168426867
:104600008368D0F80CC0D0F810E044691C94CDF851
:104610006CE0CDF868C019931892179180691D90CD
:1046200017A80021019104F035FE019940F6B4026B
:10463000C2F2000210604AF60440C0F600000268B0
:104640004368D0F808C0D0F80CE0046945691595B6
:104650001494CDF84CE0CDF848C0119310928069C5
:10466000169010A804F016FE019940F23C72C2F2B6
:10467000000210604AF62040C0F60000026843685D
:10468000D0F808C0D0F80CE0046945690E950D9487
:10469000CDF830E0CDF82CC00A93099280690F90D4
:1046A00009A804F0F7FD019940F61C02C2F20002CD
:1046B00010604AF63C40C0F6000002684368D0F83B
:1046C00008C0D0F80CE00469456907950694CDF858
:1046D00014E0CDF810C0039302928069089002A8FC
:1046E00004F0D8FD40F62C01C2F2000108601EB0B3
:1046F000B0BD000080B590B000200F900E900D90DE
:104700000C900B90FFE700200A9043F63000C4F2B3
:104710000200016841F080010160006800F0800043
:104720000A900A98FFE7FFE70020099043F630005F
:10473000C4F20200016841F001010160006800F06C
:10474000010009900998FFE7FFE70020089043F671
:104750003000C4F20200016841F004010160006809
:1047600000F0040008900898FFE7FFE7002007909A
:1047700043F63000C4F20200016841F0020101601A
:10478000006800F0020007900798FFE7FFE70020AD
:10479000069043F63000C4F20200016841F00801BF
:1047A0000160006800F0080006900698FFE700200E
:1047B000C4F2020001901021009101220292FDF743
:1047C0007DFF029A40F20040C4F2020004901146BC
:1047D000FDF774FF009A019802990B920C910D91CC
:1047E000022103910E910BA90591FDF78BFD029813
:1047F000059930220B924FF404120C920D9040F662
:104800000000C4F20200FDF77DFD029B039A0498AC
:1048100005990B930C930D930E92FDF773FD10B059
:1048200080BD000080B582B040F6E820C2F20000F2
:10483000019043F20001C4F2010101604FF4827162
:10484000416000218160C160022202610122426157
:104850004FF4007282611022C26101624162816282
:104860000A21C162FEF792FD18B1FFE7FCF7B8FA22
:10487000FFE702B080BD000080B588B00021009144
:10488000079106910591049103910291019140F6DF
:104890008830C2F2000044F20042C4F20102026019
:1048A000416081604FF6FF72C26001618161FEF775
:1048B000BFFE18B1FFE7FCF793FAFFE740F6883038
:1048C000C2F20000FFF7C8F918B1FFE7FCF788FA59
:1048D000FFE760200190002202920392059240F6C9
:1048E0008830C2F2000001A9FFF714F918B1FFE700
:1048F000FCF776FAFFE740F68830C2F20000FFF7D7
:10490000CDF808B080BD000080B582B040F6D03050
:10491000C2F20000019044F20041C4F200010160C3
:104920004FF4E131416000218160C16001610C22DE
:1049300042618161C161FFF713FC18B1FFE7FCF729
:104940004FFAFFE702B080BD80B582B040F6144058
:10495000C2F20000019044F60001C4F200010160BF
:1049600048F2A061C0F20101416000218160C16094
:104970004FF480620261042242618161C161FFF7EC
:10498000EFFB18B1FFE7FCF72BFAFFE702B080BDA1
:10499000FFE7FEE7FFE7FEE788B007900691059284
:1049A000079800F0070004900498C0F1070005285C
:1049B00003D3FFE70420019004E00498C0F107004E
:1049C0000190FFE70198039004980430062803D86B
:1049D000FFE70020009003E0049803380090FFE711
:1049E0000098029006980399012202FA01F1013918
:1049F0000840029B984005999A40013A11400843AB
:104A000008B0704700000000000000000000000037
:104A1000EFF30980BFF36F8F154B1A681EF0100F6C
:104A200008BF20ED108A20E9F04F10602DE9090041
:104A30004FF0500080F31188BFF34F8FBFF36F8F9B
:104A400005F0B6FC4FF0000080F31188BDE80900C6
:104A500019680868B0E8F04F1EF0100F08BFB0ECFE
:104A6000108A80F30988BFF36F8F704700BF00BFC3
:104A7000580C0020000000000000000000000000B2
:104A8000074B19680868B0E8F04F80F30988BFF356
:104A90006F8F4FF0000080F31188704700BF00BF98
:104AA000580C002080B582B00190FFE7012004F08F
:104AB000D7FBFBE780B582B04FF0500080F3118840
:104AC000BFF36F8FBFF34F8F009005F035FE40B1FD
:104AD000FFE74EF60451CEF200014FF0805008601F
:104AE000FFE700200190019880F3118802B080BD9B
:104AF00080B594B008A83021FBF720FD0020079076
:104B00000690059004900390FFE70020029043F682
:104B10004000C4F20200016841F080510160006869
:104B200000F0805002900298FFE7FFE7002001901C
:104B300047F20000C4F20000016841F480410160C6
:104B4000006800F4804001900198FFE70120089080
:104B50004FF48030099002210E914FF480000F90A5
:104B600004201090A82211921291139008A8FEF729
:104B7000ADF818B1FFE7FCF733F9FFE70F2003901A
:104B800002200490002005904FF4A05006904FF4AE
:104B90008050079003A80521FDF79EFE18B1FFE79E
:104BA000FCF71EF9FFE714B080BD00004EF68851F7
:104BB000CEF20001086840F4700008607047000001
:104BC00080B540F64030C2F20000FEF729FE40F604
:104BD0008830C2F20000FEF723FE80BD83B0029051
:104BE000019102980068009002980021C4F201012E
:104BF000884225D0FFE70298B0F1804F20D0FFE730
:104C0000029840F20041C4F20001884218D0FFE748
:104C1000029840F60001C4F20001884210D0FFE77C
:104C2000029840F60041C4F20001884208D0FFE734
:104C3000029840F20041C4F2010188420AD1FFE724
:104C4000009820F070000090019841680098084397
:104C50000090FFE702980021C4F20101884255D07C
:104C6000FFE70298B0F1804F50D0FFE7029840F282
:104C70000041C4F20001884248D0FFE7029840F6A4
:104C80000001C4F20001884240D0FFE7029840F6DC
:104C90000041C4F20001884238D0FFE7029840F298
:104CA0000041C4F20101884230D0FFE7029844F28B
:104CB0000001C4F20101884228D0FFE7029844F2C3
:104CC0000041C4F20101884220D0FFE7029844F677
:104CD0000001C4F20101884218D0FFE7029841F6B2
:104CE0000001C4F20001884210D0FFE7029841F6AB
:104CF0000041C4F20001884208D0FFE7029842F266
:104D00000001C4F2000188420AD1FFE7009820F4B4
:104D1000407000900198C168009808430090FFE738
:104D2000009820F08000019949690843009000989C
:104D300002990860019880680299C8620198006829
:104D40000299886202980021C4F20101884208D0C9
:104D5000FFE7029840F20041C4F20101884205D108
:104D6000FFE70198006902990863FFE702990120B3
:104D7000486103B07047000085B004900391049926
:104D8000086A20F0010008620498006A0190049803
:104D900040680090049880690290029820F07000AA
:104DA0000290029820F00300029003980168029894
:104DB00008430290019820F0020001900398816856
:104DC00001980843019004980021C4F2010188422F
:104DD00008D0FFE7049840F20041C4F20101884284
:104DE0000ED1FFE7019820F0080001900398C168F8
:104DF000019808430190019820F004000190FFE71A
:104E000004980021C4F20101884208D0FFE7049809
:104E100040F20041C4F20101884213D1FFE700983B
:104E200020F480700090009820F4007000900398A7
:104E300041690098084300900398816900980843ED
:104E40000090FFE7009804994860029804998861EF
:104E5000039840680499486301980499086205B072
:104E60007047000085B0049003910499086A20F00F
:104E7000100008620498006A01900498406800904D
:104E8000049880690290029820F4E0400290029811
:104E900020F44070029003980168029840EA0120D3
:104EA0000290019820F020000190039881680198F9
:104EB00040EA0110019004980021C4F201018842E7
:104EC00008D0FFE7049840F20041C4F20101884293
:104ED0000FD1FFE7019820F0800001900398C1688E
:104EE000019840EA01100190019820F040000190E3
:104EF000FFE704980021C4F20101884208D0FFE7CF
:104F0000049840F20041C4F20101884215D1FFE744
:104F1000009820F480600090009820F400600090D9
:104F200003984169009840EA8100009003988169E4
:104F3000009840EA81000090FFE7009804994860DB
:104F400002980499886103984068049988630198DD
:104F50000499086205B0704785B0049003910499E4
:104F6000086A20F4807008620498006A019004982E
:104F7000406800900498C0690290029820F0700088
:104F80000290029820F003000290039801680298B2
:104F900008430290019820F4007001900398816802
:104FA000019840EA0120019004980021C4F2010117
:104FB000884208D0FFE7049840F20041C4F20101A2
:104FC00088420FD1FFE7019820F400600190039818
:104FD000C168019840EA01200190019820F48060A6
:104FE0000190FFE704980021C4F20101884208D033
:104FF000FFE7049840F20041C4F20101884215D154
:10500000FFE7009820F480500090009820F40050B2
:10501000009003984169009840EA011000900398BD
:105020008169009840EA01100090FFE70098049918
:10503000486002980499C861039840680499C8635D
:1050400001980499086205B07047000085B004908B
:1050500003910499086A20F4805008620498006A59
:1050600001900498406800900498C06902900298EA
:1050700020F4E0400290029820F4407002900398DF
:105080000168029840EA01200290019820F4005043
:10509000019003988168019840EA013001900498DA
:1050A0000021C4F20101884208D0FFE7049840F2D1
:1050B0000041C4F2010188420BD1FFE7009820F4BF
:1050C0008040009003984169009840EA8110009068
:1050D000FFE700980499486002980499C861039812
:1050E00040680499086401980499086205B0704703
:1050F00080B582B001900198806B009000990020EB
:10510000C8850099C8840098FEF716FE02B080BDDD
:1051100084B00390FFE7FFE70398006850E8030FAF
:1051200020F490700290FFE702990398026842E829
:1051300003100028F0D1FFE7FFE7FFE7FFE7039840
:10514000006850E8050F20F001000190FFE7019989
:105150000398026842E805100028F0D1FFE7FFE756
:105160000398006B012814D1FFE7FFE7FFE70398DE
:10517000006850E8030F20F010000090FFE700994E
:105180000398026842E803100028F0D1FFE7FFE728
:10519000FFE70399202081F83E000399002008636F
:1051A00004B0704780B582B0019001980168C8686A
:1051B00020F04000C8600199202081F83D0001984E
:1051C000FFF76AF9002002B080BD000080B586B00C
:1051D0000490049890F83E00222840F0A180FFE758
:1051E00004988068B0F5805F15D1FFE704980069E6
:1051F00088B9FFE7002003900498806A0290049821
:10520000006840686FF35F20029908800499886AFB
:105210000230886225E00498806A039000200290A2
:1052200004988068B0F5805F08D0FFE70498806834
:1052300050B9FFE70498006930B9FFE704980068A7
:1052400040680399087007E004980068406800F01F
:105250007F0003990870FFE70499886A013088622B
:10526000FFE70499C88D0138C8850004002853D190
:10527000FFE704980168C86820F02000C86004981F
:105280000168C86820F48070C860049801684869A3
:1052900020F0010048610499202081F83E00049824
:1052A000006B012830D1FFE7049900200863FFE775
:1052B000FFE70498006850E8030F20F01000019009
:1052C000FFE701990498026842E803100028F0D132
:1052D000FFE7FFE7049800680068C00600280ED5C5
:1052E000FFE7FFE700200090049800680068009046
:1052F00004980068406800900098FFE7FFE7049872
:10530000818DFEF713FD03E00498FFF7C1F8FFE776
:1053100000208DF8170007E000208DF8170003E04B
:1053200002208DF81700FFE79DF8170006B080BD3A
:1053300080B586B0059005980068006920F440505B
:10534000059A1168D26810430861059988680B694D
:105350004A69C969184310430843049005980068D6
:10536000C06849F20C6188430499084305990968AB
:10537000C86005980068406920F44070059A11687B
:105380009269104348610598006841F20001C4F237
:105390000101884209D0FFE70598006841F2004109
:1053A000C4F20101884204D1FFE7FDF709FC039034
:1053B00003E0FDF7F3FB0390FFE70598C069B0F544
:1053C000004F29D1FFE703981921A0FB0101059A9D
:1053D0001368029353685A00DB0FFAF77AFF0299B9
:1053E000864648F21F53C5F2EB13AEFB0320420979
:1053F00010014FF0640C02FB1CEC322202EBCC02D9
:10540000A2FB0332F82303EA521300EB4300C2F37A
:1054100042121044886026E003981921A0FB010184
:10542000059A1368019353689A009B0FFAF751FF8E
:105430000199844648F21F52C5F2EB12ACFB0230D0
:105440004309642003FB10CC322000EB0C10A0FBBE
:105450000202F02000EA521000EB0310C2F34312E4
:1054600010448860FFE706B080BD000083B0019063
:10547000019890F83D0021283AD1FFE70198806813
:10548000B0F5805F13D1FFE70198006978B9FFE7B5
:105490000198006A0090009800886FF35F200199DE
:1054A000096848600199086A0230086208E0019AB8
:1054B000106A411C11620078019909684860FFE791
:1054C0000199C88C0138C884000468B9FFE70198C5
:1054D0000168C86820F08000C86001980168C86849
:1054E00040F04000C860FFE700208DF80B0003E0AB
:1054F00002208DF80B00FFE79DF80B0003B070470A
:1055000080B5FBF763FC40F6D030C2F20000FEF736
:1055100017FC80BD80B5FBF72BFC40F61440C2F2AF
:105520000000FEF70DFC80BDFFE7FEE780B586B00A
:10553000049003910020ADF80A00049820B1FFE721
:105540000398022803D8FFE70020059029E004987B
:105550000399023940F20002C2F200021288FBF7FE
:1055600047FCADF80A009DF80A10049A039810440D
:1055700010F8022C0020914201900DD1FFE79DF818
:105580000B00049A0399114411F8011C401AB0FA57
:1055900080F040090190FFE7019800F001000590BC
:1055A000FFE7059806B080BD80B584B002900191F8
:1055B00000208DF80300029820B1FFE7019802282F
:1055C00003D8FFE70020039014E002980199013905
:1055D000FF22FBF741FC8DF803009DF80300029ABF
:1055E0000199114411F8011C401AB0FA80F04009E9
:1055F0000390FFE7039804B080BD000080B503F07E
:1056000043FC80BD80B503F051FC03F071FC03F056
:1056100079FC80BD80B503F05BFC80BD80B503F0F4
:105620005FFC80BD82B00190009140F26071C2F2D7
:10563000000100204872887202B0704782B0019069
:10564000009140F26071C2F2000101204872002016
:10565000887202B07047000082B00190009140F261
:105660006071C2F2000101204872887202B0704776
:1056700080B584B00390029100200190FFE701986B
:1056800009281ADCFFE7019940F63800C2F2000051
:1056900050F8210008B9FFE70FE0019940F6380003
:1056A000C2F2000050F821000399029A00F0DCFFDA
:1056B000FFE7019801300190E1E704B080BD0000F0
:1056C00080B584B00390029100200190FFE701981B
:1056D00009281CDCFFE7019940F63800C2F20000FF
:1056E00000EB8100806A08B9FFE710E0019940F6FD
:1056F0003800C2F2000000EB8100806A0399029A30
:1057000000F0B2FFFFE7019801300190DFE704B03D
:1057100080BD000084B0039002910192ADF8023088
:1057200003980168486940F04000486103980168A7
:10573000C86840F01000C8600398806B0168086872
:1057400020F001000860FFE70398806B00680068A4
:10575000C00740B1FFE70398806B0168086820F03C
:1057600001000860F0E703990868896B0430096854
:10577000886002980399896B0968C8600198039949
:10578000896B09680861BDF802000399896B096893
:1057900048600398806B0168086840F480200860C6
:1057A0000398806B0168086840F00100086004B04D
:1057B0007047000081B00090009890ED0B0A90EDCA
:1057C000111AB4EE410AF1EE10FA04DDFFE7009978
:1057D000486CC862FFE7009890ED0B0A90ED111A33
:1057E000B1EE411AB4EE410AF1EE10FA08DAFFE721
:1057F000009890ED110AB1EE400A80ED0B0AFFE728
:1058000001B0704781B000900099002008640099B1
:10581000C8630099886300994863009908630099F8
:10582000C8610099886200994862009908620099ED
:10583000C86200990861009948610099C8600099A0
:1058400088610099C8670099C86601B07047000078
:1058500081B00090009890ED070A90ED131AB4EE15
:10586000410AF1EE10FA04DDFFE70099C86CC86147
:10587000FFE7009890ED070A90ED131AB1EE411A78
:10588000B4EE410AF1EE10FA08DAFFE7009890ED65
:10589000130AB1EE400A80ED070AFFE701B0704736
:1058A00080B584B003908DED020ACDED010A029817
:1058B0000399C860039890F84900C00720B1FFE73A
:1058C000039800F0F1F9FFE70198039988610398C4
:1058D00090ED030A90ED061A30EE410A80ED0F0AB2
:1058E000039890ED0F0A90ED101A30EE410A80ED0A
:1058F0000C0A039890ED0F0AB5EE400AF1EE10FA8B
:1059000006DDFFE7039890ED0F0A8DED000A07E032
:10591000039890ED0F0AB1EE400A8DED000AFFE703
:105920009DED000A039890ED141AB4EE410AF1EED1
:1059300010FA40F38F80FFE7039890ED001A90ED86
:105940000F0A20EE010A80ED080A039890ED070A7D
:1059500090ED0F1A30EE010A80ED070A039890F8D7
:1059600048000007002804D5FFE7039800F052F92B
:1059700009E0039890ED020A90ED0C1A20EE010A5E
:1059800080ED0A0AFFE7039890F848008006002897
:1059900004D5FFE7039800F0BDF8FFE7039890F8FF
:1059A00048008007002804D5FFE70398FFF750FF61
:1059B000FFE7039890ED010A90ED071A20EE010A27
:1059C00080ED090A039890F84800C006002804D525
:1059D000FFE7039800F080F8FFE7039890F848008D
:1059E000000600280BD5FFE7039901F1680091ED4F
:1059F0000A0A00F045F8039880ED0A0AFFE70398C9
:105A000090ED080A90ED092A90ED0A1A30EE020A8C
:105A100030EE010A80ED0B0A039890F8480040062A
:105A200000280BD5FFE7039901F1780091ED0B0AEF
:105A300000F026F8039880ED0B0AFFE7039890F832
:105A400048004007002804D5FFE70398FFF7B2FE9F
:105A5000FFE703E00398FFF7D5FEFFE703998869A6
:105A600048610399C86808610399086B4863039902
:105A7000C86B0864039890ED0B0A04B080BD000069
:105A800082B001908DED000A00980199086001989C
:105A900090ED000A90ED012A90ED033A20EE030A02
:105AA000B7EE001A31EE431A21EE021A30EE010A67
:105AB00080ED020A019988684860019890ED020A19
:105AC00002B0704780B540F61800C2F200000068CE
:105AD00001F0A0FF80BD000081B00090009890ED23
