:020000040800F2
:10000000E087002035020008E12F0008C52B00081A
:10001000DD2F0008150800089937000800000000CF
:10002000000000000000000000000000B1300008E7
:10003000A90A00080000000011300008553100082E
:100040004F0200084F0200084F0200084F0200084C
:100050004F0200084F0200084F0200084F0200083C
:100060004F0200084F0200084F0200084F0200082C
:10007000390800084F0200084F0200084F0200082C
:1000800049080008590800084F0200084F020008FC
:10009000190800084F0200084F0200084F0200082C
:1000A0004F0200083D3200084F0200084F020008CE
:1000B0004F0200084F0200084F0200084F020008DC
:1000C0004F0200084F0200084F0200084F020008CC
:1000D0004F0200084F0200087137000885370008FA
:1000E0004F0200084F0200084F0200084F020008AC
:1000F0004F0200084F0200084F0200084F0200089C
:100100004F0200084F0200084F0200084F0200088B
:100110004F0200084F0200084F0200084F0200087B
:100120004F0200084F02000869080008790800081B
:100130004F0200084F0200084F0200084F0200085B
:10014000290800084F0200084F0200084F0200086B
:100150004F0200084F0200084F0200084F0200083B
:100160004F0200084F0200084F0200084F0200082B
:100170004F0200084F0200084F0200080000000074
:100180004F0200084F02000800F002F800F042F8A9
:100190000AA090E8000C82448344AAF10107DA45E2
:1001A00001D100F037F8AFF2090EBAE80F0013F0F2
:1001B000010F18BFFB1A43F001031847DC7C000055
:1001C000FC7C0000103A24BF78C878C1FAD85207E6
:1001D00024BF30C830C144BF04680C6070470000C1
:1001E0000023002400250026103A28BF78C1FBD840
:1001F000520728BF30C148BF0B6070471FB506F0DB
:100200002AFD9DE8030000F0F1F900F0C1F91FBDDF
:1002100010B510BD00F082FA1146FFF7EFFF05F0B0
:100220002BFC00F0A0FA03B4FFF7F2FF03BC00F0D0
:1002300045FA00000948804709480047FEE7FEE705
:10024000FEE7FEE7FEE7FEE7FEE7FEE7FEE7FEE786
:1002500004480549054A064B70470000293200084A
:1002600089010008E0470020E0870020E0670020C7
:10027000E067002070B5064600F09CF9056806F1BD
:100280000B0020F00704B4429CBF002070BD2B4639
:100290006A68BAB11068A04210D304F1080188421C
:1002A0003CBF5068586007D351681019416011680D
:1002B000091B016058601460101D70BD1346526820
:1002C000002AE7D12146284600F07CF90028DED13B
:1002D00070BD53EA020C00F069802DE9F04B4FF03D
:1002E0000006002B1FBFB3FA83F503FA05F424FAC6
:1002F00005F65E4012BF1643B2FA82F502FA05F423
:10030000C5F120051EBF22FA05FC44EA0C04203585
:1003100056EA044C4FEA144418BF641C4FF000081E
:100320004FF00009904271EB030C39D3002919BF3B
:10033000B1FA81F701FA07F6B0FA80F700FA07F68A
:10034000C7F120071EBF20FA07FC46EA0C0620373B
:10035000B6FBF4FCA7EB0507103F07F01F0BCBF132
:1003600020062CFA06F60CFA0BFB44BFB346002617
:10037000202FA4BF5E464FF0000B5BEA060C08BFBF
:100380004FF0010B19EB0B0948EB0608ABFB027CA5
:1003900006FB02CC0BFB03CCC01B71EB0C01C1E7CD
:1003A0000B46024641464846BDE8F08B13B508436C
:1003B00018BF4FF0FF300146AFF30080BDE81C408E
:1003C000704740EA0103024630B59B0710D14FF059
:1003D000013400E008C208C91D1B9D4315EAC41F73
:1003E000F8D013F0FF0102F8011B0DD01B0AF8E74B
:1003F00011F8013B002B02F8013B05D011F8013B3D
:10040000002B02F8013BF3D130BD032A40F23080CB
:1004100010F0030C00F0158011F8013BBCF1020F45
:10042000624498BF11F801CB00F8013B38BF11F8C6
:10043000013BA2F1040298BF00F801CB38BF00F8DD
:10044000013B11F0030300F02580083AC0F008805A
:1004500051F8043B083A51F804CBA0E80810F5E73E
:10046000121D5CBF51F8043B40F8043BAFF3008021
:10047000D20724BF11F8013B11F801CB48BF11F896
:10048000012B24BF00F8013B00F801CB48BF00F866
:10049000012B704710B5203AC0F00B80B1E818501E
:1004A000A0E81850B1E81850A0E81850203ABFF45E
:1004B000F5AF5FEA027C24BFB1E81850A0E81850FD
:1004C00044BF18C918C0BDE810405FEA827C24BF51
:1004D00051F8043B40F8043B08BF7047D20728BFDF
:1004E00031F8023B48BF11F8012B28BF20F8023B2E
:1004F00048BF00F8012B70474FF000020429C0F0FC
:10050000128010F0030C00F01B80CCF1040CBCF145
:10051000020F18BF00F8012BA8BF20F8022BA1EB97
:100520000C0100F00DB85FEAC17C24BF00F8012B7C
:1005300000F8012B48BF00F8012B70474FF0000274
:1005400000B5134694469646203922BFA0E80C50C9
:10055000A0E80C50B1F12001BFF4F7AF090728BFA4
:10056000A0E80C5048BF0CC05DF804EB890028BF20
:1005700040F8042B08BF704748BF20F8022B11F049
:10058000804F18BF00F8012B7047704770477047C5
:1005900070B5064C7C44064D7D4404E0204601685D
:1005A00008448047241DAC42F8D170BD207900007A
:1005B0002C790000004870472000002070477047E9
:1005C0007047704738B504460A4600206946AFF3C5
:1005D0000080002808BF38BD02460099204600F080
:1005E0007BF8012038BD012000F090B8F8B5AFF3DA
:1005F0000080054600200C46102000BF0646A819C2
:10060000A0420DD9324669460020AFF300800700B2
:1006100008BF00F07BF80098A04218BF0546C41937
:10062000FFF7C8FF05600746F01D20F007004619D8
:10063000284600F00AF8B44208BFF8BDA21B3146B4
:100640003868BDE8F84000F047B800210160C0E913
:10065000011070471020704770B50446051FFFF762
:10066000A9FF0068002C14BF446870BD002C18BF9F
:10067000AC423CBF20466468F8D301680A18AA421D
:1006800018BF456003D12A680546114401602868F7
:100690004119A1421CBF6C6070BD6168696021682E
:1006A0000844286070BD10B500F012F8006810BD55
:1006B00010B5044600F00CF8046010BD0149182084
:1006C000ABBEFEE72600020000487047180000207D
:1006D0000048704718000020034640688C460028F8
:1006E00018BF88423CBF03464068F8D318681844D6
:1006F000884207D00CF1030020F00700001D411ACA
:10070000521A0146081D0A60FFF7A6BF10B500F097
:1007100039F8BDE8104000F02FB870477546FFF774
:10072000D3FFAE4605006946534620F007008546D4
:1007300018B020B5FFF78CFDBDE820404FF0000653
:100740004FF000074FF000084FF0000BAC46ACE84C
:10075000C009ACE8C009ACE8C009ACE8C00921F0A8
:1007600007018D46704710B50446AFF30080204660
:10077000BDE81040FFF757BD002801D0FFF79EBF2E
:100780007047000010B5012805D0002103A000F03B
:1007900021F8012010BD09A1F8E700005349475294
:1007A000544D454D3A204F7574206F662068656141
:1007B00070206D656D6F7279000000003A20486509
:1007C0006170206D656D6F727920636F72727570E4
:1007D0007465640070B505460C460A2000E06D1C87
:1007E00000F011F835B128780028F8D102E0641C37
:1007F00000F009F814B120780028F8D1BDE8704065
:100800000A20AFF3008008B569468DF80000032088
:10081000ABBE08BDFEE7000080B540F27C40C2F2EE
:10082000000000F0D9FB80BD80B540F2A440C2F2C8
:10083000000000F0D1FB80BD80B540F24C60C2F2F8
:10084000000000F0CDFE80BD80B540F28C50C2F2B9
:10085000000000F0C5FE80BD80B540F2EC50C2F251
:10086000000000F0BDFE80BD80B540F2CC40C2F279
:10087000000000F0B5FE80BD80B540F22C50C2F201
:10088000000000F0ADFE80BDD0F800C06FF00F0298
:100890004AF6AB2352FA8CF2CAF6AA230146A2FB0F
:1008A0000330000905A31B5C40F2FF302CEA000076
:1008B0005F2A88BF0430C1E916037047000610168E
:1008C000000610168269816AB2F5005F06D06AB927
:1008D000022912D0012914D0D1B90EE0032917D86A
:1008E000DFE801F0020B020F0120704703293CBF33
:1008F000012070471CBF00207047C06AC0F3006031
:100900007047C06AA0F1C070B0FA80F0400970472B
:100910000020704781B041F20400CEF20000006870
:10092000009040F21030C2F200000099026891423B
:1009300006D240F21431C2F200010A6801320A60A4
:100940000099016001B0704780B500F05FF840F297
:10095000F430C2F20000016882884FF47A73C088D4
:1009600001FB032101EE100A9FED062A00EE101A8A
:10097000B8EE411AB8EE400A21EE021A31EE000A32
:1009800080BD00BF6F12833A10B54EF6FC5CCEF20C
:10099000000CDCF8002044F24023C0F20F0342F0C8
:1009A0008072584344F6D353CCF8002041F2000241
:1009B000C1F26203CEF200024FF0000CA0FB033E36
:1009C000C2F804C04DF683611368C4F21B31A0FB6A
:1009D000011443F00101116040F2FC21C2F2000158
:1009E000086040F200314FEA9E10C2F20001086038
:1009F00040F20431A00CC2F20001086040F2143051
:100A0000C2F20000C0F800C010BD0000F0B581B017
:100A100041F20400CEF2000000680090FFF77AFF78
:100A200040F21430C2F200000068009C00254FF034
:100A3000FF31E0FB014540F2FC21C2F2000140F22F
:100A400008300E68C2F20000C0E900452046294681
:100A500032460023FFF73DFCA0FB062301FB0631D5
:100A6000A41A8D4140F20031C2F2000140F2F43785
:100A70000E68C2F20007386020462946324600233D
:100A8000FFF727FCB88080B240F204317043C2F215
:100A90000001201A0A6865F100010023FFF719FC24
:100AA000F88001B0F0BD000070470000B0B58AB01A
:100AB00040F27C4501200021C2F200056C460890FE
:100AC000CDE906100991CDE90011CDE90211CDE97A
:100AD00004112846214600F07FF9284600F0F2FC78
:100AE0002846022100F012F92846012100F00EF9F3
:100AF00028464FF4004100F009F928464FF4807170
:100B000000F004F928464FF4806100F0FFF8284611
:100B10004FF4007100F0FAF828464FF4006100F03D
:100B2000F5F840F2A4450E20C2F2000509900590A8
:100B30002846214600F050F9284600F0C3FC28461C
:100B4000022100F0E3F82846012100F0DFF82846F2
:100B50004FF4004100F0DAF828464FF4807100F0BD
:100B6000D5F828464FF4806100F0D0F828464FF4BD
:100B7000007100F0CBF828464FF4006100F0C6F891
:100B80000AB0B0BD10B50139B1FA81F140F2C83CEC
:100B90004909C2F2000C012808BF02311CF801000B
:100BA000142804BF002010BD40F2780441EA810EF1
:100BB000C2F2000404EB4E1404EBC00E44F83020E3
:100BC00001300CF801000120CEF8043010BD000007
:100BD00080B540F2B830C2F20000006803F0A0FE19
:100BE00040F25830C2F2000003F048F880BD000027
:100BF00010B540F2B834C2F2000422682423D2F8BF
:100C0000940102F5D07102F5E27202F065FE2268ED
:100C1000FF23D2F89C0102F5F47102F2E72202F000
:100C20005BFE10BD80B540F2B830C2F20000006833
:100C300004F020F880BD0000EFF3108072B600BF12
:100C4000FEE7000080B598B181B147F6964C0138B7
:100C5000C0F6000C10F801EFD3B283EA0E033CF8A3
:100C6000133092B2013983EA1222F3D190B280BDDF
:100C70004FF6FF7290B280BD61B146F6545C013808
:100C8000C0F6000C10F8013FD2B25A401CF8022006
:100C90000139F7D11046704780B540F27C4140F2EF
:100CA000A442C2F20001C2F20002002808BF0A46B4
:100CB00040F61C01C2F2000143F2DD030A60C0F6F7
:100CC0000003002140F21262FFF75CFF40F2CC30DB
:100CD00043F2750C45F66D3E45F6B13345F63941A4
:100CE00045F6F532C2F20000C0F6000CC0F6000E68
:100CF000C0F60003C0F60001C0F60002C0E90421FE
:100D0000C0E9063EC0F820C080BD000090F8202059
:100D1000013A012A04D8006800F11402002004E01E
:100D200000F1240201204FF480211368194311605F
:100D30007047000010B590F820E0D0F800C0AEF188
:100D4000010EBEF1010FDCF808E00DD81EF0E05FE7
:100D500010D0CEF3016EBEF1030F11D100F12401CA
:100D600001204FF4000233E000F1240101204FF490
:100D700080222DE000F1240101204FF4001227E031
:100D8000012000FA0EF01860886818B14B6840EA3C
:100D9000C30001E008684005D1E9033403430CEBCC
:100DA0000E10C0F88031C0F88441097D012905D1B9
:100DB00000F5C2710B6843F480730B605168C0F892
:100DC0008C11126800F5C071C0F888210020012242
:100DD0000B681A430A6010BDB0B590F82020013AA4
:100DE000012A2FD846F20060C4F20000026842F0E7
:100DF00001020260026822F47C520260D1F814E021
:100E0000CC694A6A0368012C43EA022202600EF0B0
:100E10001F024FF0010303FA02F2C3696FEA020CEA
:100E200023EA0203C36113D02CBBC36803EA0C039B
:100E3000C360CB688C8844EA034300EBCE04236490
:100E40000B4611E0416A41F4802141620120B0BDAE
:100E5000C3681343C3600B688C8844EA034300EB08
:100E6000CE04236401F10C038C681B8843EA04431D
:100E700000EBCE04636443688D6943EA0204D1F851
:100E800010E0096A002D08BF03EA0C0444604369BE
:100E9000BEF1000F43EA020408BF03EA0C04012973
:100EA000446102D1C1691143C161016821F00101AE
:100EB00001600020B0BD00007047000010B590F840
:100EC0002040013C012C0CD8D0F800C079B1DCF8EE
:100ED0001040A4070FD100F1240101204FF40012AB
:100EE00070E000F1240101204FF480226AE0DCF878
:100EF0000C40A4076AD0046804EB011CDCF8B04184
:100F00000CF5D87E14F004049460DCF8B04119BFED
:100F1000E4085460640D1460DEF80040002904F019
:100F20000204D460DCF8B44104F00F041461DCF86E
:100F3000B441C4F307249461DCF8B4414FEA14448B
:100F40005461DCF8B8211A70026802EB0112D2F881
:100F5000B8214FEA12225A70026802EB0112D2F84D
:100F6000B8214FEA12429A70026802EB0112D2F8DD
:100F7000B8214FEA1262DA70026802EB0112D2F86D
:100F8000BC211A71026802EB0112D2F8BC214FEAAF
:100F900012225A71026802EB0112D2F8BC214FEA08
:100FA00012429A71026802EB0112D2F8BC214FEA98
:100FB0001262DA71006814BF00F1100100F10C0137
:100FC000002020220B681A430A6010BD00F12401A2
:100FD00001204FF40012F5E72DE9F04F81B00446EF
:100FE00000684669D0F804908768D0F80CB0D0F853
:100FF00010A0D0F81880F10703D1002530071CD4C9
:1010000023E0F90710D00121BA07816009D47807DD
:1010100000F1AA80380700F1B080204600F080FA85
:1010200002E0204600F07EFA0025F80500F18480F9
:10103000F80300F1AA80300707D51BF0100004D098
:10104000206845F400751021C160700708D51BF0B9
:10105000080005D020680821C160204600F0E4F9AE
:10106000B00706D52068C068800702D0204600F08F
:10107000DDF9700607D51AF0100004D0206845F499
:10108000806510210161B00608D51AF0080005D06E
:10109000206808210161204600F00EFAF00606D50E
:1010A00020680069800702D0204600F007FAB003EC
:1010B00008D519F0100005D02068102141602046A5
:1010C00000F0FEF9F00308D519F0080005D02068FB
:1010D00008214160204600F02FFA300440F18F8053
:1010E0005FEA497040F1888006F4807008EA1020B9
:1010F00028435FEA8871014648BF41F00201B2050A
:1011000058BF01465FEA48700D4648BF45F00405E8
:10111000700558BF0D4630056ED518F070006BD0C5
:1011200010380009052862D8DFE800F0035356594B
:101130005C5F45F008055AE020684FF48071BA05FD
:1011400081600AD4780512D4380519D4204600F0FD
:10115000EBF9F8037FF56FAF17E0204600F0E6F9F2
:10116000F8037FF568AF10E04FF400655DE705F523
:101170000055F8037FF55FAF07E04FF4805554E763
:1011800005F58045F8037FF556AF20684FF48031B0
:10119000BA0381600AD478030FD4380313D42046ED
:1011A00000F0C6F930073FF548AF4EE7204600F0A3
:1011B000C1F930073FF541AF47E705F50045300776
:1011C0003FF53BAF41E705F5803530073FF535AFDB
:1011D0003BE745F010050AE045F0200507E045F043
:1011E000400504E045F0800501E045F48075206885
:1011F000816921F0700181612068042141602DB175
:10120000606A284360622046FFF756FE01B0BDE8E1
:10121000F08F0000B0B5C8B1044690F8200010B9B6
:10122000204600F071F82068016841F0010101607A
:1012300000F0D8FB054600BF20684168C90707D108
:1012400000F0D0FB401B0B28F6D312E00120B0BD0C
:10125000016821F00201016000F0C4FB054600BFF7
:101260002068416889070DD500F0BCFB401B0B28A6
:10127000F6D3606A052140F400306062012084F8F2
:101280002010B0BD217E0268012922F0800208BF33
:1012900080320260617E0268012922F0400208BFAC
:1012A00040320260A17E0268012922F0200208BFBC
:1012B00020320260E17E0268012922F0100218BF8C
:1012C00010320260217F0268012922F0080208BF63
:1012D00008320260617F0268012922F0040208BF1F
:1012E00004320260D4E901C2D4E9033561691A43CA
:1012F0002A431143ACF101021143C16100200121D5
:10130000606284F82010B0BD10B586B0006846F663
:101310000002C4F2000200219042CDE90411CDE99F
:101320000211019134D046F20041C4F2000188421A
:1013300077D140F2C031C2F200010A6843F64000A2
:10134000C4F20200531C0B6052B9002100910168E5
:1013500041F000710160016801F000710091009995
:101360000021009150F8101C142441F0080140F8AD
:10137000101C50F8100C00F008000090009803209A
:10138000019040F20040C4F2020000F5006035E038
:1013900043F64000C4F202000091016841F0806110
:1013A0000160016801F080610091009940F2C03154
:1013B000C2F200010A68531C0B6052B9002100916F
:1013C000016841F000710160016801F00071009155
:1013D00000990021009150F8101C402441F00201B6
:1013E00040F8101C50F8100C00F00200009000981B
:1013F0006020019040F20040C4F2020002210291FC
:1014000000210391032104910921059101A900F014
:1014100015FA20460521002200F08EFB204600F040
:1014200087FB06B010BD0000704700002DE9F047B3
:101430008AB003AC01AB002122460546FFF73EFD12
:1014400010B10AB0BDE8F087059840F2A441021F30
:10145000C2F20001B2FA82F240F2C83A56098D4255
:10146000C2F2000A08BF023604281AF8060008BFB4
:1014700004340028E5D040F27801246806EB8600A9
:10148000C2F2000101EB401500270DF10C080DF12F
:10149000040904E01AF8060001378742D1D255F852
:1014A0003700002818BFA042F4D105EBC7004268FE
:1014B000404649469047EDE77047000070470000FE
:1014C00070470000B0B5044690F8200001281DD1F7
:1014D000022084F820002068016821F001010160E9
:1014E00000F080FA054600BF20684068C00713D0AE
:1014F00000F078FA401B0B28F6D3606A40F4003005
:101500006062052084F820000120B0BD606A40F4CC
:10151000002060620120B0BD00206062B0BD00000C
:1015200070470000704700007047000070470000DF
:1015300070470000704700007047000070B5866D6E
:10154000044600F04FFA94F83510022925D10546DB
:101550002068216C026822F016020260426922F0C3
:101560008002426109B9A16C19B1016821F008013A
:101570000160016821F00101016000BF206800687E
:10158000C0070ED000F02EFA401B0628F6D320200C
:101590006065032084F835000CE080206065012040
:1015A00008E0E06D3F2101FA00F0B060012084F80E
:1015B00035000020002184F8341070BD90F83510FB
:1015C000022909D1052180F835100068016821F051
:1015D00001010160002070478021416501207047B2
:1015E000F0B581B004460020009040F20400C2F241
:1015F00000000268D4E9166048F2B5133768082184
:10160000C1F64E3381403942A2FB03250CD022683B
:1016100013685B0708D5136823F004031360B160F7
:10162000616D41F00101616501218140394208D0BD
:1016300022685269120604D5B160616D41F0020161
:10164000616504218140394208D0226812689207FE
:1016500004D5B160616D41F00401616510218140E4
:10166000394215D020680268120711D5B1600268AE
:101670000168520306D4C90506D4016821F00801A7
:10168000016001E0080342D4216C09B1204688477B
:10169000E16D202000FA01F23A4244D0206803684C
:1016A000DB0640D5B26094F835300268052B1ED1B8
:1016B00022F016020260426922F080024261226C2E
:1016C0000AB9A26C1AB1026822F0080202603F2037
:1016D0008840B060012084F83500216D0020002989
:1016E00084F8340040D02046884701B0F0BD01683E
:1016F000520310D4C90512D4016821F01001016011
:10170000012084F83500002084F8340007E0A16C43
:101710000029BBD1BCE7080301D4616C00E0E16B98
:1017200009B120468847606DF0B1606DC00717D0E1
:10173000052084F835002068A90A026822F0010219
:10174000026000BF009A01328A42009202D8026809
:10175000D207F7D1012084F83500002084F8340046
:10176000E16C09B12046884701B0F0BD2DE9F04198
:10177000044600F037F9C4B10546022084F835006C
:101780000020216884F83400086820F00100086017
:1017900026683068C0070BD000F024F9401B0528EC
:1017A000F6D903212022032042E00120BDE8F08188
:1017B000306848F23F01CFF21001251D00EA010C0C
:1017C0002ECDD4E9050E41EA0C01114319432943FA
:1017D000D4E90778084340EA0E01606A39430428D7
:1017E00041EA080103D1D4E90B23114319433160C5
:1017F0007169042821F0070141EA00050CD1D4E900
:101800000A1045EA010538B12046FFF75BF818B128
:101810000121402201200BE020467561FFF734F8DA
:10182000E16D3F2202FA01F18160002201210020D6
:10183000626584F83510BDE8F08100002DE9F04FB5
:1018400083B000F13E4202F1FF724FEAB22241F64C
:1018500000470192C4F2020708224FF0010E002552
:101860004FF0000A4FF00008B84208BF072200926C
:101870000AE000BF08F101080AF1040AB8F1100FEC
:1018800005F1020500F0A4800C680EFA08FB14EACA
:101890000B09EFD04C6804F0030CACF1010EBEF163
:1018A000010F11D80322876802FA05F6CA68B74308
:1018B000AA403A4382604268C4F3001722EA0B024E
:1018C00007FA08F73A434260BCF1030F1CD0C26824
:1018D00003238E6803FA05F7BA4306FA05F73A437D
:1018E000BCF1020FC2600FD16FF0030202EA58028E
:1018F00002440AF01C060F23176A03FA06F40B6968
:10190000A743B3403B431362026803234F68AB40D5
:101910009A4307F00303AB401A4317F4403F4FF0DC
:10192000010E0260A6D0002243F644030292C4F2E4
:1019300002031A6843F6004442F480421A601A68AF
:10194000C4F2010402F480420292029A28F00302D7
:101950004FF6084B2244CFF6FF7B52F80B300AF0CB
:101960000C070F26BE4023EA060C019B009E072BA6
:1019700038BF1E4606FA07F747EA0C0342F80B3059
:10198000A2684B6842EA090743F60C4CDE0258BFD6
:1019900022EA0907A760C4F2010CDCF800209E02CD
:1019A00042EA090758BF22EA0907CCF800706268CA
:1019B0009E0342EA090758BF22EA090767602268C6
:1019C000DB0342EA090358BF22EA0903236051E717
:1019D00003B0BDE8F08F0000002A08BF0904816150
:1019E0007047000044F2C440C2F200000068704733
:1019F00040F2080044F2C441C2F20000C2F2000109
:101A000000780A68104408607047000080B543F60B
:101A10000040C4F20200016841F4007101600168F5
:101A200041F480610160016841F48071016003202C
:101A300000F092F80F2000F005F800F055F80020B3
:101A400080BD0000B0B586B0002543F64401019585
:101A5000C4F202010A68044642F001020A60096801
:101A600001A801F0010101910199694600F028F9EE
:101A700000F05EF94DF683614000C4F21B31A0FB1B
:101A800001014FF0FF3000EB914140F20470002261
:101A9000C2F20000C4F2010240F2E733C0E90021C3
:101AA000C0E902530561856100F026FC0546C0B916
:101AB00040F20470C2F2000000F070FC054680B9EC
:101AC000192000F035F80F2C0AD8192021460022E1
:101AD00000F032F840F20C00C2F20000046000E0B6
:101AE0000125284606B0B0BD80B582B0002043F67F
:101AF00040010190C4F202014A6842F480424A6007
:101B00004A6802F480420192019A0090086800221B
:101B100040F08050086008680F2100F0805000906D
:101B200000986FF0010000F007F802B080BD0000DF
:101B300080B503F08DFE80BD70B514460D46064697
:101B400003F096FE2946224601F04CFA0146304643
:101B500003F096FE70BD000080B503F0A3FE80BDCB
:101B60002DE9F041002800F08B8043F60808C4F20C
:101B700002080446D8F8F8030D4600F00700884232
:101B800007D288F8F853D8F8F80300F00700A84205
:101B900076D12068810717D5410705D5D8F8001000
:101BA00041F4E051C8F80010010705D5D8F800103D
:101BB00041F46041C8F80010D8F80010A26821F084
:101BC000F0011143C8F80010C0073FD1D8F8F8035E
:101BD00000F00700A84207D988F8F853D8F8F803AE
:101BE00000F00700A8424BD12068410707D5D8F87C
:101BF0000010E26821F4E0511143C8F8001000071A
:101C000008D5D8F80000216920F4604040EAC100FE
:101C1000C8F8000000F09EF8D8F8001046F63C52D4
:101C2000C1F30311C0F60002515C40F2040220FA35
:101C300001F140F20C00C2F200000068C2F20002A2
:101C40001160FFF7FFFE0020BDE8F0816068811E93
:101C5000022907D258F8081C89015CBF0120BDE8A1
:101C6000F08110E0012807D158F8081C89035CBFF7
:101C70000120BDE8F08106E058F8081C890702D46D
:101C80000120BDE8F081D8F8001021F003010843DD
:101C9000C8F80000FFF7A6FE064641F2883700BFED
:101CA000D8F80000616800F00C00B0EB810F8DD017
:101CB000FFF798FE801BB842F2D90320BDE8F081FF
:101CC0000F22026043F60802C4F20202136803F016
:101CD00003034360136803F0F0038360136803F4A5
:101CE000E053C360D2F800C04FF4E05303EADC03D2
:101CF0000361D2F8F80300F00700086070470000A5
:101D000040F20400C2F200000068704780B5FFF79F
:101D1000F7FF43F60801C4F20201096846F64C5287
:101D2000C1F38221C0F60002515CC84080BD0000B2
:101D300080B5FFF7E5FF43F60801C4F20201096828
:101D400046F64C52C1F34231C0F60002515CC84025
:101D500080BD000010B543F60404C4F202046068BC
:101D600000F00C0142F200400829C0F2F40007D054
:101D7000042918BF10BD41F20020C0F27A0010BD46
:101D8000216801F03F02216823684902C3F38811EA
:101D900005D4A1FB00010023FEF79BFA06E041F207
:101DA0000020C0F27A004843B0FBF2F02168022222
:101DB000C1F3014102EB4101B0FBF1F010BD0000A5
:101DC0002DE9F04182B0002800F0A280044600789E
:101DD00043F60006C007C4F2020643D0B06800F024
:101DE0000C00042805D1306880033BD56068C8BB6F
:101DF0008EE0B06800F00C00082802D17068400244
:101E0000F1D46568B5F5A02F0AD0B5F5803F0BD0A9
:101E1000306820F480303060306820F4802006E0A4
:101E2000306840F480203060306840F480303060AA
:101E3000FFF7D8FD002D054611D000BF30688003A4
:101E400010D4FFF7CFFD401B6428F7D922E100BF73
:101E5000FFF7C8FD401B64284FF0030055D83068D9
:101E60008003F5D4207880071AD5B06810F00C0FE5
:101E700009D0B06800F00C00082840F08A80706833
:101E8000400200F186803068800702D5E0680128B2
:101E90003ED13068216920F0F80040EAC10030608E
:101EA0002078000738D4207840074CD4A5695DB36A
:101EB000B06800F00C00082840F09E80012D27D06B
:101EC0007068E16900F480028A4221D1216A00F041
:101ED0003F028A421CD147F6C071626A0140B1EBF1
:101EE000821F15D1A26A0023CFF6FF7303EBC23223
:101EF00000F440316FF30F02914209D1E16A00F022
:101F00007060B0EB016F03D1002002B0BDE8F0813A
:101F1000012002B0BDE8F0816069002840F20000B5
:101F2000C4F2472057D00121C0F8801EFFF75AFDA8
:101F3000054600BF706F8007B5D4FFF753FD401B07
:101F40000228F7D9A6E0306C10F080580AD10020A2
:101F50000190306C40F080503064306C00F0805064
:101F60000190019847F20007C4F200073868C005E5
:101F700024D4386840F480703860FFF733FD05469C
:101F80003868C0051AD4FFF72DFD401B0228F7D989
:101F900080E0E068002851D00020C4F247200121F1
:101FA0000160FFF71FFD0546306880073FF571AF00
:101FB000FFF718FD401B0228F6D96BE0A568052D38
:101FC00050D0012D52D0306F20F001003067306FBB
:101FD00020F004004DE00021C0F8801EFFF702FD54
:101FE000054600BF706F80077FF55DAFFFF7FAFC15
:101FF000401B0228F6D94DE00027C4F247270020F5
:102000003866FFF7EFFC022D05460BD130688001E2
:1020100058D5FFF7E7FC401B02284FF00300F5D925
:1020200073E700BF306880017FF56EAFFFF7DAFC21
:10203000401B02284FF00300F4D966E70020C4F2E9
:10204000472000210160FFF7CDFC0546306880077E
:102050007FF526AFFFF7C6FC401B02284FF00300B8
:10206000F4D952E7306F40F004003067306F40F031
:1020700001003067FFF7B6FC002D054641F28837B6
:1020800014D000BF306F800713D4FFF7ABFC401BA8
:10209000B842F7D9032002B0BDE8F081FFF7A2FCF7
:1020A000401BB8424FF003003FF62FAF306F800760
:1020B000F4D4B8F1000F7FF4F9AE306C20F080500A
:1020C0003064F3E604F11C052FCD08430021CFF660
:1020D000FF7140EA821001EBC3316FF30F0140EA58
:1020E00005600843706001203866FFF77BFC0446FA
:1020F000306880013FF508AFFFF774FC001B022831
:102100004FF00300F4D900E770B538B10446406AD7
:1021100030B10020206104F1140007E0012070BDFF
:102120006068B0F5827F03D004F11C0000210160DB
:102130000026A66294F8510020B9204684F8506029
:1021400000F03CF8022084F8510094E80F0001F4FC
:102150008271056802F4044225F0400505601144CF
:1021600003F400622369114403F00202636911441D
:1021700003F00102A369E569114403F400721144FC
:1021800005F03802256A114405F08002A56A114362
:1021900005F4005211430160626A042101EA13410F
:1021A00002F0100211444160C16921F40061C16173
:1021B0000120666584F85100304670BD2DE9F04F6E
:1021C00087B0044643F200070068C4F20107002606
:1021D000B8420696CDE904660396029602D007B08F
:1021E000BDE8F08F43F630000196C4F20200416969
:1021F00002AD41F48051416141694FF0020901F49F
:10220000805101910199019601684FF0010A41F056
:102210000101016001684FF0030B01F00101019120
:102220000199019601684FF0050841F00201016033
:102230000068294600F00200019001988020029079
:1022400007F55040CDF80C90CDF810A0CDF814B0A3
:10225000CDF81880FFF7F2FA182002A981E8010EE4
:10226000CDF8188046F2404807F554402946C4F29C
:102270000208FFF7E3FA40F2CC45C2F200054FF046
:10228000C06A4FF480694FF440372846C5E9008A98
:10229000C5E90266C5E90496C5E90666C5E908769A
:1022A000FFF764FA002818BFFEF7C6FCE564AC63CC
:1022B00040F22C5508F11800C2F200054021C5E992
:1022C000000A05F10800002280E806022846C5E958
:1022D0000522C5E907276A62FFF748FA002818BFF8
:1022E000FEF7AAFCA564AC6307B0BDE8F08F000060
:1022F0007047000070470000002804BF01207047AD
:1023000010B5044690F83D0028B9002084F83C0040
:10231000204600F01FF8022084F83D002068211DAF
:1023200000F09AFF012084F8460084F83E0084F80B
:102330003F0084F8400084F8410084F8420084F8AB
:10234000430084F8440084F8450084F83D000020F0
:1023500010BD000080B582B0006844F20041C4F2B4
:102360000101884201D002B080BD0020019043F6F7
:102370004400C4F202000168002241F4003101600F
:1023800000680F2100F40030019001981920FFF738
:10239000D3FB1920FFF7CCFB02B080BD90F83D10B5
:1023A00001291CBF01207047022180F83D10006800
:1023B00041F2FF72C168C4F20002904241F0010193
:1023C000C1600DDC40F2FF71C4F20001884215DCEF
:1023D000B0F1804F29D040F20041C4F2000122E068
:1023E00040F2FF31C4F20101884212DC41F60001E3
:1023F000C4F20001884218D0002112E040F600012A
:10240000C4F20001884210D040F60041C4F200013D
:1024100009E044F20001C4F20101884205D040F213
:102420000041C4F20101884206D1816801F0070130
:10243000062904BF00207047016841F001010160D6
:10244000002070477047000010B50446006801691D
:10245000890744BFC1685FEA817138D42068016987
:10246000490744BFC1685FEA41713CD420680169F3
:10247000090744BFC1685FEA017141D4206801695E
:10248000C90644BFC1685FEAC16145D420680169DB
:10249000C9071CBFC1685FEAC1714AD120680169E0
:1024A000090644BFC1685FEA016149D42068016937
:1024B000490644BFC1685FEA416148D420680169A8
:1024C000890644BFC1685FEA816147D410BD6FF0DF
:1024D00002010161012121778069800745D02046F2
:1024E000FFF7B0FF47E06FF004010161022121779F
:1024F000806910F4407F41D02046FFF7A3FF43E0FE
:102500006FF00801016104212177C06980073ED086
:102510002046FFF797FF40E06FF0100101610821AE
:102520002177C06910F4407F3AD02046FFF78AFF38
:102530003CE06FF001010161204600F0EBF8ADE7EF
:102540006FF0800101612046FFF7D2FEAEE76FF029
:1025500040010161204600F0E7F8AFE76FF020018D
:1025600001612046FFF7C6FE10BD204600F052F87C
:10257000204600F0CDF8002020776FE7204600F0DD
:1025800049F8204600F0C4F8002020776EE7204686
:1025900000F040F8204600F0BBF8002020776DE7FF
:1025A000204600F037F8204600F0B2F800202077EF
:1025B0006CE7000080B586B044F200410068C4F2C8
:1025C0000101002288420592CDE903220292019284
:1025D00001D006B080BD43F630000092C4F2020084
:1025E000026842F0020202600068012200F002006C
:1025F000009000984FF48070019002200290CDE985
:1026000003200320059001F5404001A9FFF716F9CA
:1026100006B080BD70470000B0B5044690F83C009D
:10262000012804BF0220B0BD0D464FEAB2010120CF
:10263000032984F83C0037D8DFE801F0020A1222AF
:102640002068294600F09AFE206850F8181F0EE016
:102650002068294600F0C4FE206850F8181F16E0D4
:102660002068294600F0F2FE206850F81C1F41F057
:1026700008010160016821F00401016029690FE08F
:102680002068294600F016FF206850F81C1F41F40E
:1026900000610160016821F480610160296909021B
:1026A0000268114301600020002184F83C10B0BD95
:1026B000002804BF0120704710B5044690F83D0083
:1026C00028B9002084F83C00204600F01FF80220C2
:1026D00084F83D002068211D00F0BEFD012084F833
:1026E000460084F83E0084F83F0084F8400084F8F7
:1026F000410084F8420084F8430084F8440084F8E0
:10270000450084F83D00002010BD00007047000027
:102710007047000080B500680021C4F201018842C2
:1027200008BFFFF765F980BD7047000070470000E3
:1027300070470000B0B582B0036804461868D968D5
:102740005A6900F02F05202D01F0200505D125B193
:10275000204600F013FF02B0B0BD5FEA007C1EBF50
:1027600002F0010E01F4907212EB0E0248D1226BBE
:102770000840C1063BD5012A39D1002001901868D4
:1027800001905868019001985869400640D4A08D86
:10279000E18DE28D002A1CBF401A5FEA004101D1A1
:1027A00002B0B0BD216851E8031F226821F4907186
:1027B00042E80313002BF5D1216851E8051F226878
:1027C00021F0010142E80513002BF5D1202184F806
:1027D0003E100021216300BF216851E8031F2268D9
:1027E00021F0100142E80313002BF5D152E001065D
:1027F00056D44006D4D5204600F0B4FE02B0B0BD99
:10280000C20718BF11F480724FD1420753D459E068
:10281000A06B016849688AB2002AC1D0A38D9A4290
:10282000BED2E185C069B0F5807F30D0206850E825
:10283000030F216820F4807041E80302002AF5D1DB
:10284000206850E8050F216820F0010041E80502EA
:10285000002AF5D1206850E8050F216820F04000DB
:1028600041E80502002AF5D1202084F83E0000202E
:10287000206300BF206850E8030F216820F010009B
:1028800041E80302002AF5D1A06BFEF757FEA08DA8
:10289000E18D401A81B22046FFF748FF02B0B0BD7B
:1028A000204600F03BFF02B0B0BD226C42F00102B6
:1028B0002264420706D5BEF1000F03D0226C42F01D
:1028C00002022264820706D5BEF1000F03D0226CFB
:1028D00042F004022264BCF1000F06D55EEA050254
:1028E00003D0226C42F008022264226C002A3FF4DA
:1028F00057AF0840800602D5204600F03FFE206812
:102900004069216C00F0400001F00801401827D018
:10291000204600F0FFFD2068406940061BD500BF3F
:10292000206850E8050F216820F0400041E80502CA
:10293000002AF5D1A06B70B143F20551C0F6000139
:102940000165FEF73BFE00283FF42AAFA06B016D46
:10295000884702B0B0BD2046FFF7EAFE02B0B0BD26
:102960002046FFF7E5FE0020206402B0B0BD000065
:10297000002804BF0120704710B5044690F83D00C0
:1029800028B9002084F83C00204600F021F82420DB
:1029900084F83D002068C16821F40051C1602046E0
:1029A00000F04EFE2068016921F490410161416907
:1029B00021F02A014161C16841F40051C160002049
:1029C0002021206484F83D1084F83E1010BD0000E2
:1029D0002DE9F04F87B00446006844F60001C4F2C8
:1029E000000100268842CDE90566CDE9036602961E
:1029F0006FD044F20041C4F20001884240F0DB8015
:102A0000002643F630000196C4F20200016946F246
:102A1000280841F4003101610169C4F2020801F49F
:102A20000031019101990196016841F001010160B5
:102A3000006802A900F00100019001980C200290AA
:102A40000220CDE903060320059007200690002010
:102A5000C4F20200FEF7F2FE40F28C5508F160006D
:102A6000C2F200054FF0006A4FF48069C5E9000A20
:102A70004FF400372846C5E90266C5E90496C5E962
:102A80000666C5E90876FEF771FE002818BFFEF756
:102A9000D3F8A563AC6340F2EC5508F17800C2F2BC
:102AA00000054021C5E9000A05F1080080E842025E
:102AB0002846C5E90566C5E907676E62FEF756FE5A
:102AC000002818BFFEF7B8F8656305F13800262521
:102AD00068E043F630000196C4F202000169002765
:102AE00041F4802101610169C4F2020701F48021EF
:102AF000019101990196016802AD41F00201016066
:102B000001684FF4806801F002010191019901967A
:102B100001684FF0020941F00401016000684FF0C4
:102B2000030A00F00400019001984FF0070B07F52D
:102B300080602946CDF80880CDE90396CDF814A031
:102B4000CDF818B0FEF77AFE4FF40060CDE9020927
:102B500004A880E8400C07F500602946FEF76EFEE9
:102B600040F24C6546F22800C2F20005C4F20200B1
:102B70004FF0006185E843004FF440304FF480721D
:102B8000C5E908062846C5E90368C5E90566EA619E
:102B9000FEF7ECFD002818BFFEF74EF8A56305F11F
:102BA000380027250460284605210022FEF7C4FFCF
:102BB0002846FEF7BDFF07B0BDE8F08F7047000064
:102BC00070470000FEE7000010B540F27C4046F27E
:102BD0000041C2F20000C4F2000140F200140322DE
:102BE0000023C0F2010480E80E0000F10C014FF454
:102BF000102C4FF4001E81E8085084618383FEF797
:102C000009FB002818BFFEF717F810BD10B540F2F9
:102C1000A44046F60001C2F20000C4F2000140F2F6
:102C2000001403220023C0F2010480E80E0000F12A
:102C30000C014FF4102C4FF4001E81E80850846101
:102C40008383FEF7E7FA002818BFFDF7F5FF10BDF4
:102C500080B582B0002043F630010190C4F2020139
:102C60000A6842F400120A600A6802F40012019233
:102C7000019A00900868002240F48000086008680B
:102C8000052100F48000009000980C20FEF754FF0E
:102C90000C20FEF74DFF102005210022FEF74CFF0F
:102CA0001020FEF745FF112005210022FEF744FF0A
:102CB0001120FEF73DFF3A2005210022FEF73CFFE0
:102CC0003A20FEF735FF3B2005210022FEF734FFB6
:102CD0003B20FEF72DFF02B080BD000010B59CB078
:102CE00046F62050C0F6000090E80E50D0E90540AE
:102CF0001591CDE91A4015A8002116921793CDF829
:102D000060C0CDF864E002F0F9FE40F27841C2F212
:102D10000001086046F6CC40C0F6000090E81E5066
:102D200080690E9114900EA800210F9210931194B7
:102D3000CDF848C0CDF84CE002F0E0FE40F2F821BA
:102D4000C2F20001086046F6E840C0F6000090E8D4
:102D50001E50806907910D9007A8002108920993E1
:102D60000A94CDF82CC0CDF830E002F0C7FE40F256
:102D7000BC31C2F20001086046F60450C0F6000003
:102D800090E81E5080698DE81E500690684600212C
:102D900002F0B4FE40F2F031C2F2000108601CB053
:102DA00010BD00002DE9F04186B0002043F630014F
:102DB0000590CDE90300CDE901000090C4F20201C5
:102DC0000A68002542F080020A600A68C4F202051F
:102DD00002F080020092009A00900A68102642F0E9
:102DE00001020A600A68012702F001020092009ABB
:102DF00000900A6842F004020A600A6802F00402C5
:102E00000092009A00900A6842F002020A600A6882
:102E100002F002020092009A00900868012240F03D
:102E2000080008600868102100F008000090009871
:102E30002846FEF7D1FD05F58064204601210122D8
:102E4000FEF7CAFDCDE9016701AE4FF00208284642
:102E500031460397CDF81080FEF7F0FC302001904A
:102E60004FF40410CDE9020705F500603146FEF786
:102E7000E5FC20463146CDE90177CDE90378FEF740
:102E8000DDFC06B0BDE8F081B0B540F2AC6043F2C5
:102E90000001C2F20000C4F201014FF4827200236B
:102EA00080E80E0000F10C014FF0020C4FF0010E13
:102EB0004FF40074102581E808500A21C0E9064546
:102EC000C0E90833C0E90A31FFF71EF9002818BF2E
:102ED000FDF7B2FEB0BD000080B588B040F24C7086
:102EE00044F200420021C2F20000C4F201024FF697
:102EF000FF730791CDE90511CDE90311CDE901116A
:102F0000C0E90021C0E9021301618161FFF7F4F912
:102F1000002818BFFDF790FE40F24C70C2F200008E
:102F2000FFF7C6FB002818BFFDF786FE6020019062
:102F30000020CDE90200059040F24C70C2F2000082
:102F400001A90022FFF768FB002818BFFDF774FEF7
:102F500040F24C70C2F20000FFF72CFB08B080BDBD
:102F600080B540F2947044F20041C2F20000C4F215
:102F7000000100234FF00C0C4FF4E13280E80E000A
:102F8000C0E90333C0E905C3C361FFF7F1FC0028C2
:102F900018BFFDF751FE80BD80B540F2D87044F6F1
:102FA0000001C2F20000C4F2000148F2A062C0F2C7
:102FB0000102002380E80E0000F10C014FF4806C48
:102FC0004FF0040E81E80850C0E90633FFF7D0FC4B
:102FD000002818BFFDF730FE80BD0000FEE70000AE
:102FE000FEE7000000F0070080F00703042B28BF75
:102FF00004234FF0FF3C03380CFA03F338BF0020E2
:10300000994381400CFA00F022EA0000084370471F
:10301000EFF30980BFF36F8F154B1A681EF0100F86
:1030200008BF20ED108A20E9F04F10602DE909005B
:103030004FF0500080F31188BFF34F8FBFF36F8FB5
:1030400003F0FAFA4FF0000080F31188BDE80900A0
:1030500019680868B0E8F04F1EF0100F08BFB0EC18
:10306000108A80F30988BFF36F8F704700BF00BFDD
:103070002008002080B58AB040F21261002004913F
:103080000221CDE902000690CDE9071040F61C00B0
:10309000C2F2000004A902AA01ABFDF74BFE0AB080
:1030A00080BD0000000000000000000000000000E3
:1030B000074B19680868B0E8F04F80F30988BFF340
:1030C0006F8F4FF0000080F31188704700BF00BF82
:1030D00020080020012002F003FDFBE7006840F219
:1030E0001262904218BF704708889FED191A0004B9
:1030F00000BA00EE100AB8EEC00A80EE010A40F2F3
:10310000CC30C2F20000BAEE083A80ED010A4A88DB
:1031100030EE030A120412BA02EE102AB8EEC22AE6
:1031200082EE012AB2EE083A80EE030A80ED022A0E
:10313000898820EE010A090409BA02EE101AB8EED5
:10314000C22A82EE012A80ED000A80ED032A704730
:103150000000C84280B54FF0500080F31188BFF3E3
:103160006F8FBFF34F8F03F0A5FB30B14EF60450C5
:10317000CEF200004FF080510160002080F31188F2
:1031800080BD000070B592B006AC20463021FDF73E
:10319000D5F9002543F640000595CDE90355CDE965
:1031A00001550095C4F202000168022641F08051E9
:1031B0000160006800F080500090009847F2000025
:1031C0000095C4F20000016841F48041016000688C
:1031D000A82100F4804000900098012006904FF450
:1031E000803007904FF480000D9004200E901190D5
:1031F00020460C96CDE90F16FEF7E2FD88B90F20A8
:10320000CDE901064FF4A05004904FF48050059092
:1032100001A805210395FEF7A3FC002804BF12B006
:1032200070BDFDF709FD00004EF68850CEF200009B
:10323000016841F4700101607047000080B540F200
:103240000470C2F20000FFF7FFF840F24C70C2F2C7
:103250000000FFF7F9F880BD10B540F6FF3E0368A7
:10326000C4F2000E40F2004C7045C4F2010C0FDCB9
:10327000B0F1804F19D040F20042C4F200029042F7
:1032800013D040F60002C4F2000290420DD010E0CC
:1032900040F60042C4F20002904206D0604504D0DD
:1032A0000022C4F20102904203D14A6823F0700365
:1032B000134341F6FF72C4F2000290420DDC7045E8
:1032C0001FDCB0F1804F41D040F20042C4F2000256
:1032D00090423BD040F6000221E043F6FF72C4F278
:1032E0000102904220DC42F20002C4F2000290424D
:1032F0002CD00022C4F20102904227D0604525D094
:1033000028E040F60042C4F2000290421ED041F68E
:103310000002C4F20002904218D041F60042C4F20A
:103320000002904212D015E044F20002C4F2010201
:1033300090420BD044F60002C4F20102904205D044
:1033400044F20042C4F20102904203D1CA6823F45D
:103350004073134323F080024B69D1F800E08C687E
:103360001A430260C46240F48062C0F828E06245FB
:1033700004BF096901630121416110BDB0B5026A52
:1033800040F2004522F001020262026AD0F804E035
:10339000D0F818C08C6822F0020240F48063C4F2B6
:1033A0000105AB4242EA040205D1CC6822F00C02CE
:1033B00024F0040422430C68AB4207D1D1E9055341
:1033C0002EF4407E45EA0E0545EA030E2CF0730309
:1033D0002343C0F804E08361496841630262B0BDE1
:1033E00070B5026A40F2004422F010020262026AE2
:1033F000D0F804E0D0F818C08D6822F0200240F424
:103400008063C4F20104A34242EA051207D1CD68E9
:103410006FF0400622F0C00206EA05152A430D6847
:10342000A34207D1D1E905642EF4406343EA860341
:1034300043EA840E2CF4E64343EA0523C0F804E093
:10344000836149688163026270BD000070B5026AE1
:1034500040F2004422F480720262026AD0F804E072
:10346000D0F81CC08D6822F4007240F48063C4F26E
:103470000104A34242EA052207D1CD6840F2FF468B
:103480002D0222F44062B5432A430D68A34207D1BE
:10349000D1E905642EF4405343EA061343EA041EBF
:1034A0002CF073032B43C0F804E0C3614968C16387
:1034B000026270BD70B5026A40F2004622F480528A
:1034C0000262026A4368D0F81CE00C68D1F808C0B8
:1034D00040F48065C4F20106B54204D14D6923F47D
:1034E000804343EA85132EF4E64646EA0426436009
:1034F000C66122F40052496842EA0C320164026259
:1035000070BD000080B5806B0021C185C184FFF7CC
:103510000FF980BD016851E8031F026821F4907122
:1035200042E80313002BF5D1016851E8051F02683A
:1035300021F0010142E80513002BF5D1016B0129AF
:103540000AD100BF016851E8031F026821F0100191
:1035500042E80313002BF5D1202180F83E10002112
:103560000163704780B50168CA6822F04002CA60F2
:10357000202180F83D10FFF723FB80BD80B582B08D
:1035800090F83E1022291ED18268B2F5805F02D1E8
:103590000169002948D0816AB2F5805F07D00AB975
:1035A000026922B10268526802F07F0201E00268FB
:1035B00052680A700121826A11448162C18D013909
:1035C0000A04C18501D002B080BD0168CA6822F03A
:1035D0002002CA60CA6822F48072CA604A6922F076
:1035E00001024A61202180F83E10016B012923D19C
:1035F00000210163016851E8031F026821F01001F6
:1036000042E80313002BF5D101680A68D20606D5FB
:10361000002201920A680192496801910199818D05
:10362000FFF784F802B080BD0168826A49686FF3D1
:103630005F2111800221BEE7FFF7C0FA02B080BD12
:1036400010B504460068D4E902C22369016921F477
:10365000405111430161626943EA0C01E36911437E
:10366000C268194349F20C639A431143C16041692E
:10367000A26921F4407141F20043114340F4806299
:10368000C4F201039A42416102D1FEF751FB01E00D
:10369000FEF73CFBE16963681922B1F5004FA0FB1E
:1036A00002011CD15A00DB0FFCF713FE48F21F5138
:1036B000C5F2EB11A0FB01235A096FF0630302FB73
:1036C0000300322303EBC000A0FB01014FF4F870AC
:1036D00000EA111000EB0210C1F342111AE09A0047
:1036E0009B0FFCF7F6FD48F21F51C5F2EB11A0FB52
:1036F00001235A096FF0630302FB0300322303EB3B
:103700000010A0FB0101F02000EA511000EB0210B4
:10371000C1F3431122680843906010BD90F83D103A
:10372000212923D18168B1F5805F01D1016931B1CF
:10373000016A02684B1C03620978516007E0016A64
:10374000036831F8022B6FF35F225A600162C18C6B
:1037500001390A04C18418BF70470068C16821F0AC
:103760008001C160C16841F04001C1607047000044
:1037700080B5FDF757FA40F29470C2F20000FEF7F0
:10378000D9FF80BD80B5FDF723FA40F2D870C2F2B0
:103790000000FEF7CFFF80BDFEE7000070B50546D4
:1037A00000284FF0000008BF70BD0C46032917D356
:1037B00040F20000C2F200000288A61E28463146F0
:1037C000FDF740FAA95DC2B291421CBF002070BD56
:1037D000611911F8011CA1EB1020B0FA80F040092A
:1037E00070BD0000B0B5044600284FF000000DD0B9
:1037F000032938BFB0BD4D1E20462946FF22FDF7E4
:103800003BFA615D401AB0FA80F04009B0BD00009B
:1038100080B502F057F880BD80B502F061F802F083
:103820007DF802F085F880BD80B502F067F880BDB4
:1038300080B502F06BF880BD40F2B830C2F20000F3
:10384000006830307047000040F21830C2F20000CB
:103850000021A0F80910704740F21830C2F20000B1
:103860000121A0F80910704740F21830C2F20000A0
:1038700040F20111A0F8091070470000F0B581B0C6
:1038800040F2FC370C4605460026C2F2000700BF96
:1038900057F8260030B12946224600F0A7FC013631
:1038A0000A2EF5D101B0F0BDF0B581B040F2FC3781
:1038B0000C4605460026C2F2000700BF07EB860053
:1038C000806A30B12946224600F090FC01360A2E6B
:1038D000F4D101B0F0BD000010B5D0F800C0D0F8B0
:1038E00038E0DCF8140040F04000CCF81400DCF8BC
:1038F0000C0040F01000CCF80C00DEF80040D4F8CA
:1039000000E02EF0010020602068C00707D000BF53
:10391000206820F0010020602068C007F8D10CF179
:103920000400A060E16022616360206840F48020B0
:103930002060206840F00100206010BD90ED0B1A5F
:1039400090ED110AB4EE401AF1EE10FAC8BF80ED06
:103950000B0A90ED0B1AB1EE400AB4EE401AF1EEEC
:1039600010FAB8BF80ED0B0A7047000090ED071AFF
:1039700090ED130AB4EE401AF1EE10FAC8BF80EDD4
:10398000070A90ED071AB1EE400AB4EE401AF1EEC4
:1039900010FAB8BF80ED070A7047000010B52DED92
:1039A000028B044690F84900B0EE608AC00784EDAF
:1039B000030A02D0204600F005F994ED030A94EDC5
:1039C000102A94ED143A30EE481A31EE420AB0EE65
:1039D000C12AB4EE432AF1EE10FA84ED068A84ED92
:1039E0000F1A84ED0C0A16DD94ED002A94ED073AC7
:1039F00094F8480021EE022A31EE031A000784ED04
:103A0000071A84ED082A09D494ED021A20EE010A5F
:103A100084ED0A0A05E00020E06248E0204600F05C
:103A2000ABF894F84800800602D5204600F080F8F4
:103A300094F84800800702D52046FFF797FF94EDE1
:103A4000010A94ED071A94F8480020EE010AC00616
:103A500084ED090A02D5204600F056F894F8480093
:103A6000000607D594ED0A0A04F1680000F02CF86E
:103A700084ED0A0A94ED080A94ED091A94ED0A2AD5
:103A800094F8480030EE010A30EE020A400684ED58
:103A90000B0A05D504F1780000F016F884ED0B0A46
:103AA00094F84800400702D52046FFF747FFE0683A
:103AB000A1692061206B94ED0B0A6063E06B61618A
:103AC0002064BDEC028B10BD90ED031A90ED012A2D
:103AD000B7EE003A80ED000A21EE000A33EE411AFB
:103AE00021EE021A30EE010A80ED020A80ED010A91
:103AF0007047000080B540F2B830C2F200000068A4
:103B000001F006F980BD000090ED0F0A90ED161A45
:103B1000B4EE401AF1EE10FAD8BF704790ED151AC6
:103B2000B4EE410AF1EE10FABCBF002141627047C9
:103B300090ED0F1A90ED180AB0EEC11AB4EE401ACB
:103B4000F1EE10FAD8BF704790ED172AB4EE421A82
:103B5000F1EE10FAC2BF0021C161704732EE411A86
:103B600032EE400A81EE000A90ED071A20EE010ABB
:103B700080ED070A7047000090ED190A90ED021AD7
:103B800090ED002A20EE013A33EE023A81EE034A2C
:103B900031EE021A81EE031A90ED063A90ED0A5AC0
:103BA00090ED052A20EE040A25EE000A21EE031A04
:103BB00031EE000A24EE021A31EE000A80ED0A0A04
:103BC0007047000090ED032A90ED040A90ED221A50
:103BD00030EE422AB0EEC23AB4EE413AF1EE10FABB
:103BE000D8BF7047B5EE402AF1EE10FA02DDBFEE05
:103BF000002A08E0B5EE402AF1EE10FAACBF9FEDC6
:103C0000052AB7EE002A21EE021A30EE010A80EDF5
:103C1000030A70470000000070B52DED028B0446CA
:103C2000FCF792FED4E91401D4E91056B0EE408AB4
:103C300002F09BFF00EE100A38EE400A10EE100A68
:103C400003F016F82A1A76EB0102C4E90E013CBF14
:103C5000012084F84800BDEC028B70BD10B504460D
:103C600090F84800002808BF10BD94F8490008B13A
:103C7000A06D8047002084F8490010BD10B50446AF
:103C8000C06D002818BF8047FCF75EFE10EE100ADA
:103C900002F0EEFFC4E914010020C4E90E004FF465
:103CA0008070A4F8480010BD2DE9F04381B040F2C7
:103CB000C436C2F20006DDF8208000243768994639
:103CC0001546C0E913444465FCF77BFB4FF4807153
:103CD000C0E90E44C0E91059A0F84810C0E91344E7
:103CE0004465C0F858802FB13946FF6C002FFBD1D6
:103CF00001F14C06306001B0BDE8F08380B540F2C0
:103D00007C42C2F20002B1EB020E40F2FC3C18BF52
:103D10004FF0010E4EEA8E02C2F2000C0CEBC20212
:103D2000002303E001330A2B08BF80BD52F82310A3
:103D30000029F7D10EEB8E010CEBC10141F82300F5
:103D400080BD0000D0E90612C0E9041270470000EF
:103D5000D0E9042301EB0111B2EB013163F1000260
:103D6000C0E90412704700000021C0E90411704747
:103D70004168D1F8941ACA17C0E90612012180F8E7
:103D8000201070470021C0E9061180F8201070470C
:103D90000168B1F9082012F1C80F08DB4B7D1B0741
:103DA00005D4437A002B0CBF0123002300E002233B
:103DB000C72A037208DC8B7C33B940F2704CC2F224
:103DC000000C00238CF8003040F225239A4201DCDD
:103DD000897C99B140F27041C2F200010A786AB957
:103DE000827A5AB1027A002A18BF7047C37A012238
:103DF0000A70591CC172002180F821107047000020
:103E000010B50446007A022814D0012809D0D0B990
:103E1000E17AC9B194F82000D0B12046FFF792FFB3
:103E200019E02046FFF7AEFF2046FFF79DFF6068D0
:103E300001F0B8FA94F8200010B92046FFF798FF77
:103E4000606801F09BFA10BD606801F071FA0CE047
:103E50002046FFF77DFF0020E0722046FFF792FF2B
:103E60006068D4E9042301F075FA6068D4E90412AB
:103E7000D0F8940AC317B0EB010CC0F100009341D5
:103E80004FEAE07E401A6EEB0201002B5CBF6046F9
:103E9000194641F28732101A4FF000008841B8BF2E
:103EA00010BD012084F8210010BD000010B50446AB
:103EB000093000F06DFB4FF48070208401F086FA29
:103EC000606000F07BFD43F649032060C0F600030C
:103ED000012000210222FCF755FE43F65903C0F6EB
:103EE0000003012000210322FCF74CFE43F6690386
:103EF000C0F60003012000210422FCF743FE204607
:103F000010BD000080B5016840F2020E0A7DC0F2CB
:103F1000010EC2F38003C2F3C002A2EB030CB1F99D
:103F200000304FF425721CFB023200EE102AB8EE6E
:103F3000C00A80ED030A0A7DB1F902C0C2F3400352
:103F400002F00102D21A4FF66C53CFF6FF735A43B8
:103F5000A2EB0C0200EE102AB8EEC00A80ED040AB3
:103F60000A7D8B7AC2F3001242755A1ED3B24FEA11
:103F7000C30C0322032B38BF2EFA0CF240F2724C12
:103F8000C2F2000C9CF800E0D3B29E4540F27143AF
:103F9000C2F200031A701CBF8CF8002002750A7D63
:103FA000520644BF0122027591F91420B2F1FF3F7D
:103FB000DCBF02220275497DC9071CBF00210175C3
:103FC00080BD000010B504464068217D627D01F08F
:103FD00029FA94ED030A94ED041ABDEEC00A606854
:103FE00010EE101ABDEEC10A10EE102A01F020FAF0
:103FF00010BD000010B50446406801F061FA606829
:1040000001F032F810BD000080B5406801F0A8FA58
:1040100080BD000010B504460020C4F25C200021E1
:10402000C4E9020103202161A08201F0CFF96060A0
:1040300000F0C4FC01462046216010BD90F8B42178
:10404000022A08D0012A0AD0002A02BFCA17C0E9F2
:104050006E1270477047CA17C0E97212704790F825
:104060003820002A18BF4942A0F8C011704700004C
:1040700080F8B4117047000090B202EBD03000B26B
:104080000023A3EB6003013A8B42C8BF11440BB27B
:10409000B3EB600FC8BF891A08B27047F0B581B0A2
:1040A000044680684CF6CD43CCF6CC43B4F932706C
:1040B000A0FB030392FBF7F09FED2F1A00EE100A0E
:1040C000B8EEC00AD80820EE010A01EE100A30EE60
:1040D000000AB8EE411A9FED292A20EE010A80EE6F
:1040E000020AA08C94ED031A101A2085A08D0D46AB
:1040F000618542F22831E284A284884230EE411A7E
:1041000084ED040A84ED051A84ED030A04BFA58535
:104110006560A08DB4F92E60281A01B23246FFF70F
:10412000ABFF00900098D4E90012009B0844D1181E
:1041300006FB07F200EE101A01EE102A02EE100A3A
:10414000B8EEC00AB8EEC11AB8EEC22A80EE010A73
:1041500082EE011A9FED0A2AC4E900010020A5851C
:1041600020EE020A21EE021A84ED070A84ED081AF5
:10417000009001B0F0BD00BFDA0F4940000070426E
:104180000000B44370B50D46402116460446FCF7C6
:10419000B3F90020A66084F8305084F831004DB1A6
:1041A000012D13D0022D18BF70BD4FF40050E085D3
:1041B000242003E04FF40050E0851320C0F20A00F1
:1041C000C4F832004FF48070E08670BD4FF40050A8
:1041D000E0850120608670BD0021C0E90011816189
:1041E00080F8311042F228318185704710B50446BD
:1041F0000868616B88421CBF002010BD108894F8CD
:10420000391000BA4FEA104CA4F87CC0508802293B
:1042100000BA4FEA1043A4F87E3090880FFA8CF170
:1042200000BA4FEA104014BFA4F88000A4F882003E
:1042300090791AB284F8840004F13C00FFF72EFF55
:10424000D4F88C0000B18047012010BD80B5D0F8B3
:1042500000C0826A011D00F120036046FCF76AFD80
:1042600080BD0000C26A1180B0F930308B4201DAA3
:10427000138003E05B429942B8BF13805178826A91
:1042800090F82430D154D0E90A2190F8240009781C
:10429000104441707047000080B5D0F800C0826AB9
:1042A000011D00F120036046FCF744FD80BD0000C5
:1042B00090F8B41121B1B0F87E10A0F8C011704789
:1042C000C16BCA17C0E96E1270470000B0B5044652
:1042D00090F8B401022818D0012819D070BBD4E995
:1042E0006E0104F1900502F043FC00EE100A94ED1B
:1042F0000F1AB4F97E00F8EEC10A01EE100AB8EE0A
:10430000C11A284600F09AF912E0B4F8C80113E087
:10431000B4F9C011B4F97E2000EE101A01EE102A93
:1043200004F19000B8EEC00AF8EEC10A00F082F97C
:10433000BDEEC00A10EE100AE16A0880E06AB0F92A
:1043400000102046FFF78EFFB0BD00002DE9F047BA
:10435000DDE9088900250446016080F82450C0E9A1
:104360000A5580F8322080F8383080F83980903053
:104370009A4617460E4600F0C7F90820B8F1010F1B
:104380002660C4E9035560611CD104F18800E06235
:1043900047F23050208607F50170606340F24C41CF
:1043A00040F25C40C2F20001C2F20000052F38BFAB
:1043B000012538BF084640F2FF21052F38BF40F2E3
:1043C000FF111BE004F18600E0624FF47A50208672
:1043D00007F50070606340F2544140F24C40C2F275
:1043E0000001C2F20000052F38BF012538BF084682
:1043F00040F2FF11052F38BF4FF400716FF0090232
:10440000002D18BF6FF00102A06294F832006160C5
:1044100002EB400084F8240004F13C001FFA89F20A
:104420004146FFF7AFFE40F26445C2F2000528782E
:1044300084F838A010B12046BDE8F08743F67D032C
:10444000C0F60003002000210022FCF79BFB43F68E
:10445000A903C0F600030120002100220126FCF779
:1044600091FB2E702046BDE8F08700002DE9F04753
:10447000DDE9088917460E46DDE90A1200250446E3
:10448000066080F82450C0E90A5580F8327080F840
:10449000383080F8398090309A4600F017F90820BB
:1044A000B8F1010F2660C4E9035560611CD104F125
:1044B0008800E06247F23050208607F501706063A3
:1044C00040F24C4140F25C40C2F20001C2F20000F6
:1044D000052F38BF012538BF084640F2FF21052FC0
:1044E00038BF40F2FF111BE004F18600E0624FF498
:1044F0007A50208607F50070606340F2544140F224
:104500004C40C2F20001C2F20000052F38BF012565
:1045100038BF084640F2FF11052F38BF4FF4007135
:104520006FF00902002D18BF6FF00102A06294F82D
:104530003200616002EB400084F8240004F13C008A
:104540001FFA89F24146FFF71DFE40F26445C2F2B0
:104550000005287884F838A010B12046BDE8F0871F
:1045600043F67D03C0F60003002000210022FCF783
:1045700009FB43F6A903C0F6000301200021002235
:104580000126FCF7FFFA2E702046BDE8F0870000F8
:104590000021018070470000501E3F2800F2278054
:1045A0000FF20402DFE800F0202F2E322E2E2E35DF
:1045B0002E2E2E2E2E2E2E382E2E2E2E2E2E2E2E11
:1045C0002E2E2E2E2E2E2E3D2E2E2E2E2E2E2E2EFC
:1045D0002E2E2E2E2E2E2E2E2E2E2E2E2E2E2E2EFB
:1045E0002E2E2E2E2E2E2E4281ED140A0AE0802A27
:1045F00004BF81ED1D0A7047B2F5807F04BF81EDD5
:10460000220A7047704781ED130A704781ED110A45
:10461000704781ED190A704781ED150AC1ED160A40
:10462000704781ED170AC1ED180A704781ED210A24
:104630007047000080B5FFF7B1F980BD10B52DEDD2
:10464000028B04469030B0EE418AFFF7A7F920466E
:10465000F0EE480A84ED030AFFF7A0F9BDEC028BE7
:1046600010BD000080B50A460146FFF795FF80BDEA
:1046700080B50A4600F19001FFF78EFF80BD000073
:10468000B0B52DED068B0D46084690211446B0EED0
:10469000418AB0EE609AB0EE40AAFBF74FFF85ED7D
:1046A00000AA85ED019A85ED028AAC64BDEC068B0B
:1046B000B0BD000080B5FFF7D5FF80BD10B50A463C
:1046C00001460446FFF7DCFF204610BDB0B52DEDD6
:1046D000068B14460A460146B0EE628AB0EE429A54
:1046E000B0EE61AA0546FFF7CBFF05F19001B0EEF1
:1046F0004A0AF0EE490AB0EE481A2246FFF7C0FF18
:104700002846BDEC068BB0BD70470000B0B5828D69
:10471000B0F8EC30002943EA02014ED0B0F888210D
:10472000B0F8843111438182818CB0F8E4206FF3BA
:10473000DF23114319438181C18CB0F8E620B0F822
:10474000863142EA010C028DB0F8E810C3F3003E56
:10475000C3F3C0256FF3DF23114343EA0C03018247
:1047600090F82A10C38190F8EA3090F82B2041EAA3
:104770000E0190F8EB401943817442EA0501214390
:1047800000F11803C1740ECB42600160B0F88211D1
:10479000836011F4C05F08BFB0BDB0F880216FF333
:1047A000DF22A2F525720280C1F3C1226FF3DF215F
:1047B000A1F525714180C272B0BD828CB0F8E430A1
:1047C000818243EA0201C28CB0F8E630818143EA7B
:1047D0000201028DB0F8E830C18143EA020190F88D
:1047E0002A2090F8EA30018243EA020190F82B2057
:1047F00090F8EB30817443EA020100F11803C174B0
:104800000ECB0EC0B0BD0000F0B581B001EBC10110
:1048100000EB810191F8A0C191F8A13191F8A3E1D9
:1048200091F8A22191F8A44163F30A2CDB084FEA26
:104830008E0E62F34A134EEA921E04F001024EEA13
:10484000822E91F8A5216408950980F82250D1F8AC
:10485000A65162F3CA14C2F30112456291F8AC5139
:1048600080F82320B1F8AA2180F82A50B1F8AE517F
:10487000028591F8AD21B1F8B0618585ACF5806510
:104880004383C48380F82B20A3F58062A4F5806362
:10489000A6F5806405EBE536A0F81CE0AEF5806176
:1048A00086EAE53EB0F88A711FFA8EF6BE4202EB48
:1048B000E237A0F818C038BF002587EAE237B0F821
:1048C0008C61BFB20583B74238BF0022428301EB3F
:1048D000E13282EAE132B0F88E7192B2BA4238BF68
:1048E0000021818303EBE33181EAE331B0F89021C9
:1048F0000FFA84FC89B2914204EBEC3138BF0023FB
:1049000081EAEC31B0F8922189B291424FF0000176
:10491000C38338BF00240484FFF7F8FE01B0F0BD64
:1049200080B582B0D0F894110A6813689B062BD426
:104930001268D2063FD5002200920A6813680093DD
:1049400052680092009A896B0968D1F800C00B6820
:1049500023F001030B6024234A684B60D1F800E088
:104960005FEA0C33C2F1240218D44EF400230B602A
:104970000B6892B243F00103122A0B601BD1002195
:10498000FFF742FF02B080BD002001900868016877
:10499000019140680190019802B080BD2EF400237F
:1049A0000B600B6892B243F00103122A0B6002D134
:1049B0000121FFF729FF02B080BD000040F26840EE
:1049C000C2F20000006870472DE9F04F97B0002B4D
:1049D00000F02F810746E430129007F1300011906B
:1049E00007F58870109007F5AF700F9007F5AE705F
:1049F0000E9007F5AA700D9007F5A6700C9007F5BC
:104A000090700B9007F1DC000A9007F1D400099038
:104A100007F1CC00089007F1C000079007F1BC0037
:104A2000069007F1BA00059007F1B800049007F16D
:104A3000A800039007F19400029007F18400019010
:104A400007F17E00169007F17900159007F17400C8
:104A5000149007F16C00139007F14A001C461546AC
:104A60000E46009007F1480B002040F201394FF04C
:104A7000000A0EE038464246042300F0DDF80AF151
:104A80000C0A00BF0AF1010A5FFA8AF0A04280F026
:104A9000D080C5EB052131440A5CA52AF2D101EB97
:104AA000000840460521FEF79DFE0128EAD1B8F82E
:104AB0000500B0F5007F17DD484526DCA0F2012097
:104AC0000D28DFD8DFE800F0073F4851545D6069EA
:104AD0006B6D6F7881830199384642460D2300F053
:104AE000ABF80AF1150ACDE7B0F5807F1BDDA0F227
:104AF00001100428C6D8DFE800F00406036D6F003B
:104B0000C0E71399B6E71499B4E740F2023188423E
:104B10006BD040F20331884270D0B0F5417F7FF412
:104B2000B1AF129919E0012871D0022878D003287A
:104B30007FF4A8AF009938464246202300F07CF865
:104B40000AF1280A9EE7029938464246102300F0EF
:104B500073F80AF1180A95E70399384642460C2380
:104B600000F06AF80AF1140A8CE70499384659E013
:104B7000059938464246022300F05EF80AF10A0A17
:104B800080E7069938464DE00799384642460723A4
:104B900000F052F80AF10F0A74E708990DE009993C
:104BA00068E70A9909E00B9938464246282300F045
:104BB00043F80AF1300A65E70C9938464246062365
:104BC00000F03AF80AF10E0A5CE70D9952E70E99E7
:104BD000384627E0159900E01699384642460323E7
:104BE00000F02AF80AF10B0A4CE70F9938464246C2
:104BF0001E2300F021F80AF1260A43E710993846EF
:104C000042460F2300F018F80AF1170A3AE7119903
:104C1000384642460B2300F00FF80AF11C0A31E730
:104C2000384659464246012300F006F80AF1090ABF
:104C300028E717B0BDE8F08FF0B581B00D46064605
:104C400003F1090110461C461746FEF7A7FD01288F
:104C50000CD1F91D28462246FBF7D7FB002028552A
:104C600030460021FFF752FD01B0F0BD012028556C
:104C700001B0F0BD80B582B0D0F89C110A6813680D
:104C80009B062CD41268D20640D5002200920A68F6
:104C90001368009352680092009A896B0968D1F8F2
:104CA00000C00B685FEA0C3223F001030B604FF089
:104CB000FF03D1F804E04B600B686FEA0E0218D4D2
:104CC00043F400230B600B6843F001030B6000F515
:104CD000F471D3B20022FFF777FE02B080BD00204E
:104CE000019008680168019140680190019802B044
:104CF00080BD23F400230B600B6843F001030B60BD
:104D000000F5F471D3B20122FFF75EFE02B080BD60
:104D100000210184C0E90611C0E9091181857047AD
:104D2000F0B581B000270446078147600760C0F8EE
:104D30000A70C0F80E70C0F8127087758761C7617D
:104D400007843030412184F87E70C4F82270C4F8A2
:104D50002670C4F82A7084F82E70FBF7EFFB94F8E5
:104D60007F00B4F8801000F0800084F87F0001F428
:104D70007E40A4F8800004F19400212184F87C7026
:104D80006767A76784F88270A4F8C07084F8C2705F
:104D9000C4F8C47084F8C870C4E9457784F81C71FD
:104DA00004F59076C4F8547184F8587104F5AE7522
:104DB000C4E92177C4F88C70A4F89070FBF7BEFBAF
:104DC00030463321A4F8BC70C4F8B870C4F8CC7075
:104DD000C4F8CF70C4F8D47084F8D870C4F8DC700C
:104DE000C4F8DF70C4E93977C4F8EC7084F8F07067
:104DF000C4F8F270C4F8F570C4F80E71C4F80A7102
:104E0000C4F80671C4F80271C4F8FE70C4F8FA70F0
:104E1000FBF794FB28462121FBF790FBB4F88001B7
:104E2000B4F8821100F47840A4F8800101F46040E5
:104E3000B4F88411A4F8820101F47840B4F8861122
:104E4000A4F8840101F46040A4F886014FF4A02086
:104E5000C4F888014FF0051040F2D875C4F88C01F1
:104E6000C4F89001C2F2000504F5D07040F244414C
:104E7000C4F89451FBF762FB40F29471C2F2000156
:104E8000C4F894512046C4F89C1101B0F0BD000054
:104E900070B5049E0446A0F82821032B4FF00002B1
:104EA000A0F8261114D8DFE803F015021012F0EE76
:104EB000400A9FED4B0A2046FFF7BCFBB1EE400ACB
:104EC000BDEEC00A10EE102A04E0642202E00022C7
:104ED000C4F82621B4F92611B4F928315042CD186E
:104EE000281AA4F82A2118BF012030424FF00A00E6
:104EF000A1EB030318BF0F20991AA4F8300118BFC3
:104F0000012131424FF00A0118BF0F21002E4FF04E
:104F10000A06A4F82C1118BF0F26D3424FF00A033B
:104F20004FF00A0C18BF3346A4F83231954208BF3F
:104F30006646A4F82E6100F0C3FDB4F93221B4F93D
:104F40002E110546104600F0BBFD0146284600F034
:104F5000B7FD80B242F22931884238BF70BD00EE01
:104F6000100A9FED201AB8EE400A81EE000AB4F94B
:104F70003021B4F92C0101EE102AB8EEC11AB4F9AF
:104F80003231B4F92E1120EE011ABDEEC11A11EE24
:104F9000102A01EE100AB8EEC11A20EE011ABDEE79
:104FA000C11A11EE100A01EE103AB8EEC11A20EE45
:104FB000011ABDEEC11AA4F82C0111EE100A01EE7F
:104FC000101AB8EEC11A20EE010ABDEEC00AA4F80C
:104FD000320110EE100AA4F83021A4F82E0170BDA1
:104FE0000000000000A00C4610B52DED028BDFED97
:104FF000190A9FED191AB7EE000A07210446FFF7B8
:105000005DFB9FED178A00209FED140A84F82401B0
:10501000C4F82601C4F82A01C4F82E01C4F83101ED
:1050200020460421F0EE480AFFF744FB9FED0D0AED
:1050300020460221F0EE480AFFF73CFBB1EE040ADD
:1050400020460121F0EE480AFFF734FB2046BDEC74
:10505000028B10BDCDCCCC3D0AD7233C00002544AB
:1050600000000000000096432DE9F04381B02DEDD3
:10507000108B88B0B0F99613B0F998C3B0F96635C3
:10508000B0F96825B0F90679B0F9085900EE10CAF0
:105090009FED9D8A02EE101ADFED9C2AB8EEC00A41
:1050A000B8EEC22A03EE102A05EE103A20EE081AD6
:1050B000B8EEC33AB8EEC55A06EE105A00EE907A32
:1050C00062EE224A8146B0F93667B0F9380721EE20
:1050D000021A23EE084AB8EEC66AF8EEE00A24EE99
:1050E000822A65EE224A24EE054A26EE087A24EE4C
:1050F000855A60EEA24A27EE207A01EE900A64EE0D
:10510000A00A04EE906AF8EEE11AF8EEE44ADFED48
:10511000805A61EE883A64EEA22A63EEA43A62EE07
:10512000A42A60EE254A24EE800A63EE254A24EE86
:10513000833A66EE254A32EE011A24EE866A61EE63
:10514000A54A30EE010A35EE041A30EE872A64EEE5
:10515000A11A33EE011A36EE024A32EEA32AB7EE56
:10516000046AADF81810ADF81600B9F8060031EE73
:10517000825A31EE062A34EE061A69469FED654AD8
:10518000ADF8122030EE063A35EE060A0A1F042169
:10519000ADF81A30ADF81C70ADF81E60ADF810C057
:1051A000ADF814508DED003A8DED012A8DED021A07
:1051B0008DED030A92ED015A0432B5EE405AF1EE3C
:1051C00010FA34EE056AC8BFB0EE464A0139F1D193
:1051D00005EE100AB8EE455AB4EE454AF1EE10FA63
:1051E00040F38B8085EE044A9FED4B9A9FED4BBABE
:1051F0009FED4DCA9FED4DDA9FED49EA9FED49FACB
:1052000000256E460DF11808BFEE04AA04AF23EE88
:10521000043A22EE042A21EE041A20EE040A8DED4F
:10522000003A8DED012A8DED021A8DED030A17E08B
:1052300038EE800A80EE0E1AB0EE4F0AB4EE4F1A26
:10524000F1EE10FAC8BFB0EE410ABDEEC00A10EE92
:10525000100A27F815000135042D06F104063CD08C
:1052600096ED000AB5EE400AF1EE10FAF3DB38F9DC
:10527000150037F9154001EE100AB8EEC11A21EEFB
:10528000092A22EE012A30EE020A61EE088A30EE87
:105290000A0A20EE0B0A28EEA81A31EE001AB1EE27
:1052A000C10AB4EE400AF1EE10FA0FD6012CBFDBB2
:1052B00030EE680A80EE0C1AB0EE4D0AB4EE4D1ACC
:1052C000F1EE10FAB8BFB0EE410ABEE7B0EE410A07
:1052D00001F02EFC012CEBDAAAE7BDF81000BDF8B6
:1052E0001210A9F89E03A9F86E15BDF81600BDF8B6
:1052F0001410A9F83E07A9F80E1908B0BDEC108BE0
:1053000001B0BDE8F08300BF4F020636C3031C3472
:10531000FC11043400000000C3031CB4FC1104356C
:10532000FC1184B400606AC6FC11843400606A46D3
:1053300010B500F6582420460021FEF799FE2046BD
:10534000FEF7B6FF2046FEF7C1FF2046FEF7A4FF9A
:1053500010BD0000B0B500F65825284600211446BF
:10536000FEF786FE21B22846FEF768FE2846FEF7C5
:10537000ADFF2846FEF790FFB0BD000010B500F667
:10538000582420460221FEF773FE20464FF4FA719E
:10539000FEF754FE2046FEF799FF2046FEF77CFFFD
:1053A00010BD0000B0B500F658250446284603217C
:1053B000FEF75EFE04F69420FEF70EFF2846FEF789
:1053C00085FF2846FEF768FFB0BD000040F26C4044
:1053D000C2F200000068704710B50446B0F9C4017D
:1053E0009FED0C1AA0F2857000EE100AB8EEC00A0C
:1053F0009FED092A20EE010ADFED080A9FED081A49
:1054000020EE020A84ED000A00F00CFB84ED000A95
:1054100010BD00BF0000B44300000039000034C3D9
:105420000000344380F8281C80F8302C70470000BE
:1054300070B52DED068B82B015460E460446FFF77B
:10544000CBFF704294ED000A01EE100AB8EEC18A5B
:1054500000F098FA20EE089A94ED000A01EE105A36
:10546000B8EEC1AA00F008FF20EE0A0A39EE400AA1
:10547000BDEEC01A94ED000A11EE105A00F0FCFEC9
:1054800094ED001A20EE088AB0EE410A00F07AFA94
:1054900020EE0A0A38EE000ABDEEC00A10EE101A1D
:1054A00094ED000A94F8283C94F8306C04F10C0058
:1054B0002A460096FFF7ECFC02B0BDEC068B70BDEF
:1054C0002DE9F041074600F5D768002087F8290C40
:1054D00040460121FEF7CCFD07F54675284601211F
:1054E000FEF7C6FD07F6880630460121FEF7C0FD2F
:1054F00007F59D6420460121FEF7BAFDB7F83C018F
:1055000000EB8000400001B24046FEF797FDB7F87F
:10551000380100EB8000400001B22846FEF78EFD06
:10552000B7F83E0100EB8000400001B23046FEF7C4
:1055300085FDB7F83A0100EB8000400001B220463B
:10554000FEF77CFD4046FEF7C1FE2846FEF7BEFE94
:105550003046FEF7BBFE2046FEF7B8FEBDE8F08100
:1055600080B500F5D760FEF771FE80BD2DE9F04FE4
:1055700081B02DED088B8AB004464FF03710606083
:105580003720208104F10C00FFF72EFD40F6AC56C9
:105590000121CDE9001640F2A44104F5A470C2F245
:1055A00000010122002309904FF00008FEF7CEFE13
:1055B00040F27C479FED929A9FED928AC2F20007DB
:1055C000B2EE0EBAB6EE00AA04F546704FF482753C
:1055D000394604220123B0EE4B0AF0EE480AB0EE41
:1055E0004A1AF0EE491AB0EE482AF0EE482A08901E
:1055F000CDE90086CDE902584FF00409FEF736FFE9
:1056000004F59D60394602220123B0EE4B0AF0EE0C
:10561000480AB0EE4A1AF0EE491AB0EE482AF0EE07
:10562000482A0790CDE900860295CDF80C80FEF758
:105630001DFF04F5D760394601220023B0EE4B0A66
:10564000F0EE480AB0EE4A1AF0EE491AB0EE482AD7
:10565000F0EE482A0690CDE900860295CDF80C8040
:10566000FEF704FF04F68800394603220023B0EE5B
:105670004B0AF0EE480AB0EE4A1AF0EE491AB0EEC4
:10568000482AF0EE482A0590CDE900860295CDF82B
:105690000C80FEF7EBFE04F658250620DFED5A1AC3
:1056A000DFED5A2A0390B7EE000A28463946052254
:1056B0000023F0EE480AB0EE481AB0EE492ACDE9D0
:1056C0000169CDF80080FEF7D1FE9FED519A04F5F7
:1056D000E96948460421B0EE490AF0EE480AFEF7AF
:1056E000C1FF04F56A7A50460421B0EE490AF0EE93
:1056F000480AFEF7B7FF04F6181B58460421B0EE1F
:10570000490AF0EE480AFEF7ADFF04F5AF663046F1
:105710000421B0EE490AF0EE480AFEF7A3FFB2EE0C
:1057200008AA48464FF48071B0EE4A0AF0EE480AE3
:10573000FEF798FF50464FF48071B0EE4A0AF0EE43
:10574000480AFEF78FFF58464FF48071B0EE4A0AC0
:10575000F0EE480AFEF786FF30464FF48071B0EE57
:105760004A0AF0EE480AFEF77DFF04F6E8263046C6
:105770000421B0EE490AF0EE480AFEF773FF9FEDF0
:10578000250A30460421F0EE480AFEF771FF9FED2E
:10579000220A30460221F0EE480AFEF769FF069819
:1057A0003946FEF7ABFA08983946FEF7A7FA05988E
:1057B0003946FEF7A3FA07983946FEF79FFA2846BE
:1057C0003946FEF79BFA099840F2A441C2F2000163
:1057D000FEF794FAFEF730F8C4F82C0C0020FBF723
:1057E0005BFA40F20311C4F84401C4F8008020467B
:1057F000A4F8281C0AB0BDEC088B01B0BDE8F08FFE
:105800009A99993E00000000CDCC4C3F0000C84260
:1058100000606A4600007A460000164340F2744079
:10582000C2F200000068704710B50446002808BFA7
:10583000012400BF2046FAF71DFD002818BF10BD47
:10584000FFF7ECFF08B18047F4E7002010BD00002F
:10585000002848BF704700F01F01012202FA01F141
:105860004EF200124009CEF2000242F820107047BA
:105870004EF60C50CEF200000068C0F302207047D4
:105880004EF6145300F00F02CEF2000309011A4441
:1058900000F16043B0F1FF3FC8BF03F564421170EF
:1058A000704700004EF60C51CEF200010A684FF628
:1058B000FF031A4060F30A2242F0806040F0FD705E
:1058C0000860704780B540F63840FFF7ADFFFFF73E
:1058D0004DFE40F26C41C2F20001086080BD000044
:1058E00080B54FF4BD60FFF79FFFFFF719FA40F254
:1058F0006841C2F20001086080BD000080B540F23E
:105900004030C2F20000FEF785FB80BD80B540F25A
:105910001830C2F20000FEF7C9FA80BD80B5FFF76B
:105920004DF840F2B831C2F20001086080BD0000BD
:1059300080B582B043F6F52C40F25830C0F6000C2A
:10594000C2F2000004A164220023CDF800C0FEF7DB
:10595000ABF902B080BD00BF4454370040F2403480
:10596000C2F200042046FEF7CDFA2046FEF72AFBDD
:105970002046FEF73FFB2046FEF746FB012000F0E5
:10598000E9FDEFE79FED1B2AB0EEC01AB4EE421A14
:10599000F1EE10FA04DA9FED1B0A32EE411A14E020
:1059A000B4EE421AF1EE10FABFEE000A21DB9FEDD1
:1059B000122AB4EE421AF1EE10FAA8BF70479FED1A
:1059C0000F2A9FED0F0A31EE021AB0EEC11AB2EEA5
:1059D000042A21EE021ABDEEC11A46F6546111EEF8
:1059E000100AC0F6000101EB800090ED001A81EE74
:1059F000000A70470000B442000034430000B4C203
:105A00000000C8C20000C84240F21834C2F20004CC
:105A10002046FEF7BDF92046FEF7F2F9012000F01E
:105A200099FDF5E7B4EE601AF1EE10FA23DBB4EE5F
:105A3000410AF1EE10FA0FDDB4EE410AF1EE10FA70
:105A400019DD30EEC12A00BF32EE000AB4EE410A81
:105A5000F1EE10FAF8DC0EE0B4EE600AF1EE10FAA6
:105A6000A8BF704731EE601A31EE000AB4EE600A4A
:105A7000F1EE10FAF8DB7047FBF7C8FFFDF782FB89
:105A8000FDF790F9FDF7E4F8FDF786FAFDF79CF8CD
:105A9000FDF7BCF8FDF7F8F9FDF71EFAFDF760FA1F
:105AA000FBF704F8FBF7A4F8FDF718F900F020F86D
:105AB000FEE70000B0F1840118BFC11C0846704722
:105AC00000EBE03201EBE13382EAE03083EAE131DE
:105AD00082B28BB29A4238BF084600B270470000CB
